:020000040800F2
:10000000980400204501000885090008E30600085F
:10001000810900085D050008B71300080000000012
:10002000000000000000000000000000E1090008DE
:10003000B1050008000000009D090008ED0B000854
:100040005F0100085F0100085F0100085F01000810
:100050005F0100085F0100085F0100085F01000800
:100060005F0100085F0100085F0100085F010008F0
:100070005F0100085F0100085F0100085F010008E0
:100080005F0100085F0100085F0100085F010008D0
:100090005F0100085F0100085F0100085F010008C0
:1000A0005F010008510C00085F0100085F010008B3
:1000B0005F0100085F0100085F0100085F010008A0
:1000C0005F0100085F0100085F0100085F01000890
:1000D0005F0100085F0100085F01000811110008BE
:1000E0005F0100085F0100085F0100085F01000870
:1000F000E90C00085F0100085F0100085F010008CB
:100100005F0100085F0100085F0100085F0100084F
:10011000310F00085F0100085F0100085F0100085F
:100120005F0100085F0100085F0100085F0100082F
:10013000DFF80CD000F000FA00480047D5140008A2
:10014000980400200648804706480047FEE7FEE77F
:10015000FEE7FEE7FEE7FEE7FEE7FEE7FEE7FEE777
:10016000F10B0008310100082DE9FE4F804681EABD
:100170000300C00F0C46009021F0004123F0004521
:10018000B8EB0200A94105D24046214690461C46E4
:100190000B46024623F00040104347D0270DC7F31B
:1001A0000A00C3F30A510290401A019040286BDA0A
:1001B000C3F3130040F4801B0098924620B1002343
:1001C000D2EB030A63EB0B0B01985946C0F14002D6
:1001D000504600F023F906460D4650465946019A0E
:1001E00000F03BF910EB08006141002487EA11524E
:1001F00084EAE7731A4340D0009A62B3019A012A55
:100200004FEA075215DC001B61EB02014FF0004280
:1002100002EA0752CDE90042001C41F58011324646
:100220002B4600F03BF903B0BDE8F08F4046214675
:10023000F9E7001B61EB0201001C41F58013001877
:100240005B412018A2F5001747EB030140EAD57087
:10025000B6196D4111E06D084FEA360645EAC075E2
:100260004FEA0752001B61EB0201001C41F58011AF
:1002700049084FEA30000019514132462B4603B07D
:10028000BDE8F04F00F0FBB80098012240000023C9
:10029000D0EB020263EBE073009821464FEAE07472
:1002A000B8EB000061EB0401E9E783F000435BE792
:1002B00081F0004158E72DE9FE4F81EA030404F084
:1002C000004421F0004100944FF0000B23F0004364
:1002D00050EA01045ED052EA03045BD0C3F30A542F
:1002E000C1F30A552C44A4F2F3340194A0FB025448
:1002F000C1F3130141F48011C3F3130343F48013DA
:1003000001FB024400FB034E840A970A44EA81542D
:1003100047EA8357A4FB076802958D0A05FB07850A
:100320004FEA932C04FB0C542705029D4FEA065814
:1003300047EA1637B5EB08056EEB070C870E920EF1
:1003400047EA811742EA8312A7FB0201B6EB0B01D1
:1003500064EB00042B0D43EA0C335E1844EB1C5095
:10036000DA465146E7FB0201C5F313044FEA0B33AB
:1003700043EA14534FEA0432019C43EA0603A4F112
:100380000C040294009CCDE900B400F087F803B09F
:10039000BDE8F08F00200146F9E7C1F30A5210B51D
:1003A000C1F3130140F2FF3341F480119A4201DAA4
:1003B000002010BD40F233439A42A2F2334203DCE4
:1003C000524200F03AF810BD904010BD00F00042DB
:1003D00030F000400AD0C10D01F56071C0F3160085
:1003E00042EA0151C208400711437047002001460C
:1003F00070470000002801DBC0F10040002901DB4C
:10040000C1F1004181427047002801DBC0F100408A
:10041000002901DBC1F1004188427047202A04DB3A
:10042000203A00FA02F1002070479140C2F1200307
:1004300020FA03F3194390407047202A04DB203A46
:1004400021FA02F00021704721FA02F3D040C2F1F4
:1004500020029140084319467047202A06DBCB173B
:10046000203A41FA02F043EAE07306E041FA02F36F
:10047000D040C2F12002914008431946704710B5A0
:10048000141E73F1000408DA401C41F100019218B7
:100490005B411A4301D120F0010010BD2DE9F04D60
:1004A00092469B4611B1B1FA81F202E0B0FA80F2B5
:1004B00020329046FFF7B2FF04460F4640EA0A009A
:1004C00041EA0B0153465A46084313D0114653EAFA
:1004D000010019D0C8F140025046FFF7AEFF0546B3
:1004E0000E46504659464246FFF798FF084305D04E
:1004F000012004E020463946BDE8F08D0020054388
:1005000046EAE0762C4337430A986305E40AA0EBF9
:1005100008000022FD0A44EA47540A3002D50020B0
:100520000146E9E7010510196941DDE908450019AF
:100530006941BDE8F04DA2E7064C074D06E0E068D2
:1005400040F0010394E8070098471034AC42F6D31A
:10055000FFF7F2FD2C1600084C16000800BFFEE75E
:1005600010B500200B4908700B49087001200B4999
:1005700008700B49087080210A4800F0AEF820216D
:10058000094800F0AAF84FF48071084800F0A5F877
:1005900010BD00003E0000203F0000204000002071
:1005A00041000020000C0140001001400008014003
:1005B00070472DE9F0410246002500260020002367
:1005C0000024002791F803C00CF00F0591F803C038
:1005D0000CF0100CBCF1000F03D091F802C04CEAF3
:1005E000050591F800C0BCF1000F31D0146800205F
:1005F0002BE04FF0010C0CFA00F3B1F800C00CEA4C
:1006000003069E4220D183004FF00F0C0CFA03F733
:10061000BC4305FA03FC4CEA040491F803C0BCF1A6
:10062000280F06D14FF0010C0CFA00FCC2F814C0E0
:100630000AE091F803C0BCF1480F05D14FF0010C5E
:100640000CFA00FCC2F810C0401C0828D1D314607A
:10065000B1F800C0BCF1FF0F34DD546800202EE07B
:1006600000F1080C4FF0010808FA0CF3B1F800C0D3
:100670000CEA03069E4221D183004FF00F0C0CFAC6
:1006800003F7BC4305FA03FC4CEA040491F803C0E9
:10069000BCF1280F05D100F1080C08FA0CF8C2F8DB
:1006A000148091F803C0BCF1480F07D100F1080C89
:1006B0004FF0010808FA0CF8C2F81080401C082816
:1006C000CED35460BDE8F0810246002093680B4011
:1006D0000BB1012000E000207047416170470161CB
:1006E000704700BFFEE7000008B50121042000F0BC
:1006F00067F90121082000F063F90121102000F0C2
:100700005FF949F67000ADF8000004208DF8030091
:1007100069464248FFF74DFF4FF40470ADF8000002
:1007200004208DF8030069463D48FFF742FF202072
:10073000ADF8000010208DF8030003208DF80200B2
:1007400069463748FFF735FF20213548FFF7C5FFD9
:100750004FF48070ADF8000010208DF803000320E6
:100760008DF8020069462D48FFF723FF4FF4807192
:100770002A48FFF7B2FF1020ADF8000004208DF8E2
:10078000030069462748FFF714FF2020ADF800005A
:1007900004208DF8030069462248FFF70AFF402035
:1007A000ADF8000004208DF8030069461D48FFF7EE
:1007B00000FF8020ADF8000010208DF8030003201A
:1007C0008DF8020069461748FFF7F3FE80211548AF
:1007D000FFF783FF0120ADF8000010208DF8030023
:1007E00003208DF8020069460E48FFF7E2FE012162
:1007F0000C48FFF774FF0220ADF8000010208DF8C0
:10080000030003208DF8020069460648FFF7D1FE79
:1008100002210448FFF763FF08BD00000008014003
:1008200000100140000C014010B5044614B1012035
:100830001B4908701A48007808B34FF40071194832
:10084000FFF742FF28B14FF400511748FFF73CFF74
:10085000A8B90A2000F018FE0020114908704FF4D2
:1008600000711048FFF730FF08B9012010BD4FF4A8
:1008700000510D48FFF728FF80B90220F6E74FF43A
:1008800000710848FFF720FF012807D141030648FF
:10089000FFF71AFF012801D1014908700020E5E7A0
:1008A00035000020000C01400010014070B54FF4ED
:1008B00000712B48FFF708FF044610212848FFF776
:1008C00003FF05462748007808B305B3FCB926485E
:1008D0000078E0B180212548FFF701FF2148017829
:1008E0002348007800F07EF8A52000F0CDFD2148D7
:1008F00001782148007800F061FD80211B48FFF756
:10090000ECFE00201B4908701B49087023E01848C2
:10091000007800B3FDB9F4B118480078D8B180214F
:100920001248FFF7DCFE0F4801781148007800F00C
:1009300059F8A52000F0A8FD0E4801780E4800786F
:1009400000F03CFD80210948FFF7C7FE002009495F
:10095000087009490870044804700848057070BDA3
:10096000001001403D00002040000020000C01402C
:100970003C0000203E0000203F00002041000020FD
:1009800000BFFEE77047000002490143024A1160C0
:10099000704700000000FA050CED00E07047000011
:1009A00029B1064AD2690243044BDA6104E0034AE2
:1009B000D2698243014BDA617047000000100240A7
:1009C00029B1064A92690243044B9A6104E0034A42
:1009D00092698243014B9A61704700000010024007
:1009E0007047000070B504460D4604BBFDB14FF4DE
:1009F00000411F48FFF768FE48B14FF480511C4882
:100A0000FFF762FE18B901201A49087070BD4FF453
:100A100000411748FFF758FE38BB4FF48051144887
:100A2000FFF752FE08B3012013490870EEE7E4B166
:100A3000DDB940210E48FFF747FE40B120210C48A8
:100A4000FFF742FE18B901200A490870DEE740218D
:100A50000748FFF739FE40B920210548FFF734FE6B
:100A600018B1012004490870D0E700BFCEE70000AC
:100A7000000801403E0000203F00002070B5002427
:100A8000002510211248FFF71FFE044620211048C0
:100A9000FFF71AFE0546052000F0F6FC10210C4871
:100AA000FFF712FE0B49087020210948FFF70CFEE2
:100AB0000949087007480078A04204D10846007828
:100AC000A84200D170BDFFF7D9FF00BFFAE70000D0
:100AD000000C01403C0000203D00002010B500F05B
:100AE00001F810BD0CB5002001900090334800685B
:100AF00040F480303149086000BF3048006800F49D
:100B0000003000900198401C0190009818B901989D
:100B1000B0F5A06FF1D12948006800F4003010B1A1
:100B20000120009001E0002000900098012843D1AE
:100B30002348006840F0100021490860084600681A
:100B400020F0030008600846006840F002000860DA
:100B50001A48406819494860084640684860084695
:100B6000406840F4806048600846406820F47C108B
:100B700048600846406840F4E8104860084600684D
:100B800040F08070086000BF0C48006800F0007002
:100B90000028F9D00948406820F003000749486060
:100BA0000846406840F00200486000BF03484068C3
:100BB00000F00C000828F9D10CBD00000010024024
:100BC00000200240042808D14FF0E021096941F0DB
:100BD00004014FF0E022116107E04FF0E0210969C4
:100BE00021F004014FF0E0221161704770470000CE
:100BF00010B51348006840F001001149086008462C
:100C00004068104908400E494860084600680E498F
:100C100008400B4908600846006820F480200860FE
:100C20000846406820F4FE0048604FF41F008860CA
:100C3000FFF754FF4FF000600449086010BD00004A
:100C4000001002400000FFF8FFFFF6FE08ED00E094
:100C50007047000030B589B005460C4601210520DB
:100C6000FFF7AEFE01210820FFF79AFE18208DF84D
:100C700023000C20ADF8200003208DF8220008A9E5
:100C80001748FFF796FC681E80B2ADF81800601E8A
:100C900080B2ADF814000020ADF81A00ADF81600CF
:100CA00005A9104800F0F2F86020ADF8040000201B
:100CB000ADF80C000120ADF8060001A9094800F0CC
:100CC00055F801A9074800F0A1F80121054800F0F6
:100CD00021F80121034800F02CF809B030BD0000D4
:100CE00000080140000C004010B50121074800F049
:100CF0002CF850B10121054800F018F800200449F3
:100D000008600021014800F014F810BD00340140D3
:100D10003800002021B1028842F08002028004E005
:100D200002884FF67F731A4002807047CA430282DE
:100D3000704721B1028842F00102028004E002887B
:100D40004FF6FE731A400280704730B5024600200D
:100D500000230024158A05EA0103958905EA0104A8
:100D600013B10CB1012000E0002030BD70B50024AB
:100D700000220023058C4FF6FF6635400584028C67
:100D80008388848B4FF68F752C404FF6FC752C4072
:100D90000D882C434FF6FF552A400D894FF6FF76FC
:100DA00006EA05252A434D8806EA05252A43154DFE
:100DB000A84202D0144DA8421DD14FF2FF752A401F
:100DC0004D894FF6FF7606EA05252A434FF6FF3593
:100DD0002A408D8806EA05252A434EF6FF752B40EA
:100DE0004DF6FF752B408D8906EA05152B43CD89FD
:100DF00006EA05152B4383808483CD88858702848A
:100E000070BD0000002C01400034014070B500228C
:100E100000230024058C4EF6FF7635400584038CB4
:100E20008488828B48F6FF752A404FF6FF452A409A
:100E30000D884FF6FF7606EA05252A434DF6FF7525
:100E40002B400D8906EA05352B434D8806EA05350A
:100E50002B430B4DA84202D00A4DA84208D14BF6B5
:100E6000FF752C408D894FF6FF7606EA85152C43D9
:100E700084808283CD88A0F84050038470BD000038
:100E8000002C014000340140818770470022028815
:100E90001D4B98420ED01D4B98420BD0B0F1804FA5
:100EA00008D01B4B984205D01A4B984202D01A4BDF
:100EB000984204D14FF68F731A404B881A43174B50
:100EC000984207D0164B984204D04FF6FF431A4081
:100ED000CB881A4302808B8883850B8803850A4B55
:100EE00098420BD0094B984208D00E4B984205D03F
:100EF0000D4B984202D00D4B984201D10B7A0386DC
:100F00000123838270470000002C0140003401401F
:100F10000004004000080040000C004000100040A9
:100F200000140040004001400044014000480140DE
:100F300070B540F225516C4800F0E9F9002819D04D
:100F400040F22551684800F0D3F9674800F02EFAC6
:100F5000C5B26648007870B92C2D0CD101206349C8
:100F60000870634801780078401C614A107061483D
:100F700020F81150B7E05D48007801280ED1122DFD
:100F80000CD1022059490870594801780078401C5A
:100F9000574A1070574820F81150A4E05348007881
:100FA000022861D1524801780078401C504A1070E4
:100FB000504820F8115010460078142801DA5B2DB3
:100FC000D8D103204949087001204B49087048488E
:100FD00000780B38474931F81010454800780A3836
:100FE000444A12F8100001EB0020444908804048B0
:100FF00000780938114631F810103D48007808385B
:1010000012F8100001EB00203D49088038480078B4
:10101000C01F114631F8101035480078801F12F8B3
:10102000100001EB00203749088031480078401F4C
:10103000114631F810102E480078001F12F81000E9
:1010400001EB00203049088029480078C01E114675
:1010500011F8101026480078801E12F8100001EBDD
:1010600000202A4908703EE02048007803282BD150
:101070001F480078401E1F4931F810005B2813D12B
:10108000002240F22551184800F06BF900201A495F
:1010900008701749087015490870012240F225515F
:1010A000114800F05EF91EE0002010490870104958
:1010B0000870002405E000200E4921F81400601C8F
:1010C000C4B2142CF7DB0EE0002008490870084970
:1010D0000870002405E00020064921F81400601C77
:1010E000C4B2142CF7DB70BD004C0040330000206C
:1010F000320000206C00002034000020200000207E
:101100002200002024000020260000202C000020C7
:1011100070B540F225516C4800F0F9F8002819D05C
:1011200040F22551684800F0E3F8674800F03EF9C6
:10113000C5B26648007870B92C2D0CD101206349E6
:101140000870634801780078401C614A107061485B
:1011500020F81150B7E05D48007801280ED1122D1B
:101160000CD1022059490870594801780078401C78
:10117000574A1070574820F81150A4E0534800789F
:10118000022861D1524801780078401C504A107002
:10119000504820F8115010460078142801DA5B2DD1
:1011A000D8D103204949087001204B4908704848AC
:1011B00000780B38474931F81010454800780A3854
:1011C000444A12F8100001EB0020444908804048CE
:1011D00000780938114631F810103D480078083879
:1011E00012F8100001EB00203D49088038480078D3
:1011F000C01F114631F8101035480078801F12F8D2
:10120000100001EB00203749088031480078401F6A
:10121000114631F810102E480078001F12F8100007
:1012200001EB00203049088029480078C01E114693
:1012300011F8101026480078801E12F8100001EBFB
:1012400000202A4908703EE02048007803282BD16E
:101250001F480078401E1F4931F810005B2813D149
:10126000002240F22551184800F07BF800201A496E
:1012700008701749087015490870012240F225517D
:10128000114800F06EF81EE0002010490870104967
:101290000870002405E000200E4921F81400601CAD
:1012A000C4B2142CF7DB0EE000200849087008498E
:1012B0000870002405E00020064921F81400601C95
:1012C000C4B2142CF7DB70BD004800403000002091
:1012D0002F000020440000203100002018000020D2
:1012E0001A0000201C0000201E0000202B000020FF
:1012F00010B50022002340F66A14A14200D100BFBD
:101300000A1201249440A3B2DC43048010BD70B5DE
:101310000246002400230025002040F66A16B14250
:1013200000D100BFC1F3421501F01F03012606FAE8
:1013300003F3012D02D19689334006E0022D02D13C
:10134000168A334001E0968A33400C12012606FAD1
:1013500004F41688344013B10CB1012000E00020E1
:1013600070BDF0B50346002400260025002040F69D
:101370006A17B94200D100BF1846C1F3421401F008
:101380001F06012707FA06F5012C01D10C3004E0F5
:10139000022C01D1103000E014301AB107682F433D
:1013A000076002E00768AF430760F0BD0146888828
:1013B000C0F30800704700BFFEE7000070B50446A8
:1013C0000D4685B1012000F05FF84FF4807113489D
:1013D000FFF785F90A2000F057F84FF480710F48A5
:1013E000FFF77BF918E0BCB120210D48FFF777F932
:1013F000062000F049F820210948FFF76EF94FF464
:1014000080710648FFF76BF90A2000F03DF84FF4B1
:1014100080710248FFF761F970BD000000080140CB
:101420000010014002E008C8121F08C1002AFAD1CA
:1014300070477047002001E001C1121F002AFBD154
:101440007047000010B56FF00400FFF7BBFB0A48BF
:1014500000680A49B0FBF1F00949087008460078B5
:1014600000EB4001C1EBC0104FF6FF7101EAC00074
:101470000449088010BD00000000002000127A001E
:1014800014000020160000200146114A12884A4329
:101490004FF0E0235A6100229A611A46126942F025
:1014A00001021A6100BF4FF0E022106900F0010252
:1014B0001AB100F48032002AF5D04FF0E022126910
:1014C00022F001024FF0E0231A6100229A61704776
:1014D00016000020FFF708F94FF4A060FFF754FA58
:1014E000482144F62060FFF7B5FBFFF7ABFF5DE056
:1014F0000020FFF799F9044640212D48FFF7E4F852
:1015000038B1FFF7BBFAFFF7D1F9002000F058F827
:1015100004E0FFF725F8274800F052F84FF4805117
:101520002548FFF7D1F870B14FF400412248FFF78A
:10153000CBF840B901211E48FFF7CFF802211C4823
:10154000FFF7CBF818E04FF480511B48FFF7BCF8C9
:1015500050B94FF400411848FFF7B6F820B1012107
:101560001348FFF7BAF807E001211148FFF7B7F871
:1015700002210F48FFF7B3F8012C0AD121020E48CF
:10158000FFF7ADF80A20FFF77FFF21020A48FFF7B7
:10159000A4F8022C0AD120210848FFF7A0F8062061
:1015A000FFF772FF20210548FFF797F8A0E700003A
:1015B000000C01400000874300080140001001407A
:1015C0002DE9F05F834613495846FEF71DFF02D808
:1015D000DFF840B006E010495846FEF70BFF01D88F
:1015E000DFF834B05846FEF7F1FE80460B4A0C4B4C
:1015F000FEF761FE064600220A4BFEF7B5FD0446E3
:10160000FEF7CBFE1FFA80FA51460748FFF73CFC75
:10161000BDE8F09F00007043000040409A999999FE
:1016200099991D4000407F40000C00404C16000876
:101630000000002044000000241400089016000858
:1016400044000020540400003414000800A24A049E
:101650000000000000000000010203040607080962
:10166000000000000000000000000000000000007A
:10167000000000000000000000000000000000006A
:101680000001000000000000000000000101000057
:0400000508000131BD
:00000001FF
