:020000040800F2
:10000000F8190020495A000851120008531200083C
:10001000551200085712000859120008000000008D
:100020000000000000000000000000005B1200085B
:100030005D120008000000005F1200086112000855
:10004000635A0008635A0008635A0008635A00089C
:10005000635A0008635A0008635A0008635A00088C
:10006000635A0008635A0008635A0008635A00087C
:10007000635A0008635A000861390008CB3C000845
:10008000635A000891360008635A0008635A000852
:10009000635A0008635A0008635A0008635A00084C
:1000A0006B4A0008635A0008635A0008635A000844
:1000B00065460008635A0008635A0008635A00083E
:1000C000635A0008635A0008635A0008635A00081C
:1000D000635A00084D320008BF3500081D3900087A
:1000E000635A0008635A0008635A0008635A0008FC
:1000F000635A0008635A0008635A0008635A0008EC
:10010000635A0008635A0008635A0008635A0008DB
:10011000873C0008635A0008635A0008F50A000883
:10012000635A0008635A0008635A0008635A0008BB
:10013000635A0008635A0008635A0008635A0008AB
:10014000635A0008635A0008635A0008635A00089B
:10015000635A0008635A00088F320008635A000887
:10016000635A0008635A0008635A0008635A00087B
:10017000635A0008635A0008635A0008635A00086B
:10018000635A0008635A0008DFF80CD007F04EFBF2
:1001900000480047010E0008F81900209FEDF90AF9
:1001A000F94880ED130A80ED140A80ED150A80ED00
:1001B000160A7047DFEDF50AF348C0ED130A9FED0C
:1001C000F40A80ED140A80ED150AC0ED160A704796
:1001D0009FEDF00AEC4880ED0F0A9FEDEF0A80EDED
:1001E000100A9FEDEE0A80ED110A9FEDED0A80EDF9
:1001F000120A704770B5FFF7EBFFFFF7DBFFE24C29
:10020000E84DBAEE0E1AD4ED0E0A95ED040A71EE21
:10021000600AB4EEE00AF1EE10FA12D2FFF7BEFF68
:1002200004F070FE012060722078401C20700020D5
:10023000A070E0709FEDD30A85ED040A85ED050AF4
:10024000607070BD9FEDD80ACF4880ED0F0A9FED1A
:10025000D70A80ED100A9FEDD60A80ED110A9FEDB6
:10026000D50A80ED120A7047DFEDD30AC648C0ED0B
:10027000130A9FEDD20A80ED140A80ED150AC0ED35
:10028000160A704770B54FF480412DED028BCC48B3
:1002900005F0A5FEFFF79CFFFFF7E6FFBA4C04F15F
:1002A00080052078022808D004280BD0062811D019
:1002B000082818D00A2860D025E094ED090ADFED5F
:1002C000C10A0BE0A06A07F0D6F841EC100B9FEDD5
:1002D000BE1B0FE094ED0B0AFBEE0C0A30EEC00AD9
:1002E00085ED070A0FE0206B07F0C5F841EC100B15
:1002F0009FEDB71B51EC100B53EC112B07F02DF8B1
:1003000007F0CCF8E861A74ED5ED070A96ED040A90
:10031000B4EEE00AF1EE10FA2CD29FED9A8A84ED49
:10032000178A84ED188A84ED198A84ED1A8A84ED7F
:100330001F8A85ED008A85ED018A85ED028A85EDAB
:10034000038A85ED048A85ED058A85ED068AFFF727
:1003500025FF04F0D7FDFFF775FF03F0A1FF012093
:1003600060722078401C20700020A07086ED048A06
:1003700086ED058ABDEC028B70BD606B07F07BF8E3
:1003800041EC100B9FED941BB4E72DE9F0477E4B39
:10039000954D964E1878924C924A95ED032A96ED1B
:1003A000030AA8B1DFED771ADFF84892904F03F106
:1003B0008001D9ED030A012825D09C46B8469CF857
:1003C00002C098ED031A05282CD009282AD02CE069
:1003D00010EE100A90420ADA12EE100A904206DA83
:1003E00001F03CFC95ED030A01F04CFC05E010EE39
:1003F000100A904201DA01F031FC94ED000ABDE8E8
:10040000F04701F0F4BFC3ED1F1AC1ED001AC1EDB2
:10041000011AC1ED021AB0EE600A01F055FD97ED28
:10042000030A31E0BCF1000F06D0032834D00728BE
:1004300032D00B2830D032E010EE900A4D46904278
:1004400014DA11EE100A904210DAC3ED1F1AC1ED52
:10045000001AC1ED011AC1ED021AB0EE410A01F015
:1004600047FD95ED030A01F02FFD0FE011EE100A94
:10047000C3ED1F1AC1ED001AC1ED011A9042C1ED82
:10048000021A03DAB0EE410A01F032FD94ED000ADF
:10049000BDE8F04701F0C8BFBCF1000F09D0504FD4
:1004A0000228D7ED000A33D0062831D00A282FD0F1
:1004B00041E010EE900A904214DA11EE100A9042D8
:1004C00010DAC3ED1F1AC1ED001AC1ED011AC1ED1A
:1004D000021AB0EE600A01F09CFC97ED030A01F0ED
:1004E000AEFC0FE010EE900AC3ED1F1AC1ED001A2A
:1004F000C1ED011A9042C1ED021A03DAB0EE600AB2
:1005000001F087FC94ED000ABDE8F04701F0AFBFB1
:10051000BCF1000F0FD0B0EE600A01F0EDFF3648DD
:1005200090ED030A01F04BFC344890ED030ABDE85E
:10053000F04701F059BC042801D0082810D1BCF1C3
:10054000000F0DD0B0EE600A01F0D6FF95ED030A62
:1005500001F0C4FB96ED030ABDE8F04701F0A7BB2C
:100560000C286CD110EE100A904249DA12EE100AF3
:10057000904245DAB0EE420A01F0F6FB96ED030A2E
:1005800042E00000000000000000002000508EC586
:1005900000A08CC50000EA420000FC4200000943B4
:1005A0000000B6427813002000004D4300000C42CA
:1005B000000044420000364300605DC500C05AC5DB
:1005C000001002400000ECC13333333333B330C08A
:1005D0006666666666662EC03333333333333FC098
:1005E0008801002000001643B4010020940100207F
:1005F0003402002014020020F4010020D401002065
:1006000010EE100A904204DA01F07FFB94ED000A2C
:1006100011E0C3ED171AC3ED181AC3ED191AC3ED93
:100620001A1AC3ED1F1AC1ED001AC1ED011AC1ED6E
:10063000021AB0EE600ABDE8F04702F02CB8BDE83F
:10064000F08710B5FF4C2DED028B6079002829D082
:10065000E06C06F010FF9FEDFC8B53EC182B06F0BE
:100660007FFE06F01BFFE064206D06F004FF53ECF4
:10067000182B06F075FE06F011FF2065606D06F080
:10068000FAFE53EC182B06F06BFE06F007FF6065D0
:10069000A06D06F0F0FE53EC182B06F061FE06F09C
:1006A000FDFEA065BDEC028B10BDDFEDE90AE5485B
:1006B000C0ED130A9FEDE70A80ED140A80ED150ADC
:1006C000C0ED160A7047DFEDE40ADE48C0ED130AFC
:1006D0009FEDE20A80ED140A80ED150AC0ED160ABE
:1006E0007047DFEDDE0AD748C0ED130A9FEDDA0A46
:1006F00080ED140A80ED150AC0ED160A70479FEDD3
:10070000D80AD04880ED130A80ED140A80ED150A4E
:1007100080ED160A704710B5CA4C207820B9A07A2F
:10072000012816D1FFF7EBFF2078012803D0052818
:1007300001D0092801D1FFF7D4FF2078032801D088
:10074000072801D1FFF7BFFF20780B2801D1FFF761
:10075000ACFF207908B1FFF774FF20780D2802D193
:10076000BDE810401AE510BDB64900B5087858B18B
:10077000022809D0042807D0062805D0082803D06D
:100780000A2801D00C2801D1FFF722FD08780128A2
:1007900009D0032807D0052805D0072803D0092849
:1007A00001D00B2802D15DF804EB4BE500BD10B57C
:1007B000A44C00204FF4004120716071A94805F05D
:1007C000FAFB207321780122012903D0052901D0E9
:1007D000092902D1A37803B950B9032903D0072905
:1007E00001D00B2906D1A178002903D1002801D01E
:1007F0002271627110BD70B592489A4C0278A515AD
:10080000052A11D0092A0FD0032A17D0072A15D09C
:100810000B2A13D08021204605F0E3FB2946204611
:10082000BDE8704005F0DDBB8021204605F0D9FB16
:1008300029462046BDE8704005F0D1BB8021204606
:1008400005F0CDFBEAE710B54FF40061864805F0EE
:10085000B2FB04464FF40071844805F0ACFB794AC2
:100860001178012903D0052901D0092905D1012CCE
:1008700003D1D37B0BB9937B23B1032906D007297E
:1008800004D009E09473D07322200CE0012803D136
:10089000917B09B9D17B19B19473D073002010BD3D
:1008A0009473D073232000F0DCFD012010BD70B5DF
:1008B000644C4FF001062DED028B2078A17A0143A4
:1008C0001FEDD08A04F1800533D16949CA686949AE
:1008D0008A422EDA684AD2688A422ADA267084ED81
:1008E000178A84ED188A84ED198A84ED1A8A84EDBA
:1008F0001B8A84ED1C8A84ED1D8A84ED1E8A84ED9A
:100900001F8A85ED008A85ED018A85ED028A85EDD5
:10091000038A85ED048A85ED058A85ED068AFFF751
:100920003DFC04F0EFFAFFF71FFF03F0B9FC66721D
:1009300020E5012804D1FFF786FF08B102201EE060
:100940002078032804D1FFF77EFF08B1042016E0C9
:100950002078052804D1FFF776FF08B106200EE0C5
:100960002078072804D1FFF76EFF08B1082006E0C1
:10097000207809282FD1FFF766FF60B30A20207086
:1009800084ED178A84ED188A84ED198A84ED1A8A19
:1009900084ED1B8A84ED1C8A84ED1D8A84ED1E8AF9
:1009A00084ED1F8A85ED008A85ED018A85ED028A36
:1009B00085ED038A85ED048A85ED058A85ED068A35
:1009C000FFF7ECFB04F09EFAFFF7CEFE03F068FCA5
:1009D0006672A670CEE420780B2829D00D28A7D106
:1009E00084ED178A84ED188A84ED198A84ED1A8AB9
:1009F00084ED1B8A84ED1C8A84ED1D8A84ED1E8A99
:100A000084ED1F8A85ED008A85ED018A85ED028AD5
:100A100085ED038A85ED048A85ED058A85ED068AD4
:100A2000FFF7BCFBBDEC028BBDE8704004F06ABA76
:100A30001248C16812488142CCDA1249C968814221
:100A4000C8DA21E000000020333333333333C33FAF
:100A500000409CC500409C45002099C50020994558
:100A60000080BB450010024000080240000C02401C
:100A70001402002000007043340200209401002082
:100A800000409243B40100200C20207084ED178AAE
:100A900084ED188A84ED198A84ED1A8A84ED1B8A04
:100AA00084ED1C8A84ED1D8A84ED1E8A84ED1F8AE4
:100AB00085ED008A85ED018A85ED028A85ED038A40
:100AC00085ED048A85ED058A85ED068AFFF766FBCC
:100AD00004F018FAFFF748FE03F0E2FB6672A67016
:100AE000E6704FF48041BDEC028B8148BDE8704058
:100AF00005F077BA70B57F4E0121304606F00FF948
:100B000001287CD17C4D687801280BD1288A401CB3
:100B10002882688A401C6882A88A401CA882288B88
:100B2000401C2883E88A401CE882E87910B1688B71
:100B3000401C6883287A10B1A88B401CA883687A6F
:100B400010B1E88B401CE883A87A10B1288C401CB7
:100B50002884E87A10B1688C401C6884288A0024B4
:100B6000012800D12C82688A052836D16C82FFF7D3
:100B70009EFEFFF740FEE879297A0843697A084328
:100B800000D00120A87140BBFFF711FEFFF7ECFD7C
:100B9000FFF7C1FDFFF7F9FB03F082FB04F0B2F9A8
:100BA000A87820B104F03FFBA87960B115E0534864
:100BB0000460534804609FED530A534880ED040AD3
:100BC00080ED050AF0E7A87818B1E87818B9FFF7C2
:100BD00059FBE87808B1FFF70DFBA88A0A2815D160
:100BE0004A48AC82006806F046FC41EC100B48A174
:100BF00053EC102B474806F057FE464800E04DE006
:100C000006F000FB0146434802F0F9FAE88A192889
:100C100002D1EC8204F026F8288B322800D12C83F4
:100C2000688BC82801D16C83EC71A88BB0F5E17F8B
:100C300001D1AC832C72E88BFA2801D1EC836C7261
:100C4000288CA0F50061663923D12C84AC722878F9
:100C5000697B08431DD101206873D5ED130AB6EEF8
:100C6000040A60EE800AC5ED130AD5ED140A60EEA1
:100C7000800AC5ED140AD5ED150A60EE800AC5EDAF
:100C8000150AD5ED160A20EE800A85ED160A04F045
:100C900039F9688CB0F5C87F00D16C843046BDE866
:100CA0007040012106F047B813489FED1B0A80ED04
:100CB0000F0A9FED1A0A80ED100A9FED190A80EDC8
:100CC000110A9FED180A80ED120A704700EBC0036D
:100CD00000214FF4C87203EB001304E00020401C15
:100CE0009042FCD3491CB1EB430FF7D3704700008F
:100CF000001002400014004000000020240C0040BE
:100D00002404004000000000781300208801002027
:100D100025660A00A00200200000EC420000F0421C
:100D2000000002430000F6421CB50121102005F02E
:100D3000F4FA002101208DF8041000908DF80700CE
:100D400003202C4C8DF805006946204605F0E2F89A
:100D5000022100916946204605F0DCF8042100914B
:100D60006946204605F0D6F80821009169462046DC
:100D700005F0D0F81CBD70B51F4D204C287858B137
:100D8000D4F8000268B1D4F8040250B1D4F80802D3
:100D900038B1D4F80C0220B1D4F8000201281AD0DE
:100DA00026E00A2000F05DFB00202870D4F8000245
:100DB00048B1D4F8040240B1D4F8080238B1D4F8EC
:100DC0000C0230B114E0012070BD022070BD032080
:100DD00070BD042070BDD4F80402012808D1D4F8F5
:100DE0000802012804D1D4F80C02012800D128708F
:100DF000002070BD00100240A00000200000424210
:100E00002DED0A8B82B00024DFEDDD8A4FF4A06067
:100E1000B0EE688A04F02AFEA82000F0E1FAFFF79D
:100E200083FF04F0A9FD01F09FFD542144F62060EA
:100E300002F0FEFF03F089FB02F051F801F0EEFD35
:100E400001F008FE03F0DDFF54214FF47A7002F048
:100E5000BFFF4FF6FF750121284604F037F9012145
:100E6000284604F08AF900F017FBFFF797F904F021
:100E700049F84FF4E13002F0E1F84FF4165002F077
:100E80008DFAC048C0ED008ABF48C0ED008ABF4857
:100E9000C0ED008ABE48C0ED008ABE48C0ED008AA1
:100EA000BD48C0ED008ABD48C0ED008ABC48C0ED19
:100EB000008ABC48C0ED008ABB48C0ED008ABB4830
:100EC000C0ED008ABA48C0ED008AFFF781F903F04F
:100ED000E7F99FEDB8BB9FEDB99BDFF8E882DFF83B
:100EE000E892DFF8E8A2DFF8E8B29FEDBACBBB4D9D
:100EF0009FEDBBABBC4EFFF73EFF012802D002289E
:100F000040D08CE0B94FBA4938680860B9494218F6
:100F1000B9498A4201D2022104E0B84A1044884209
:100F200002D20321B6480170642000F09AFAB54855
:100F300097ED000A4FF4804180ED000AB24880ED41
:100F4000000AB24880ED000AB14880ED000AB148BD
:100F500080ED000AB04880ED000AB04880ED000A3C
:100F6000AF4880ED000AAF4880ED000AAE4880ED42
:100F7000000AAE4805F035F8AD4901200870AD49CA
:100F80000870A6E0072C4AD2DFE804F049040608FE
:100F90001C304400474602E04F4614E0574638688C
:100FA00006F069FA53EC192B06F033F906F076FADD
:100FB000386018EE100A06F05EFA41EC100B53ECA4
:100FC000192B1EE05F46386806F055FA53EC1B2BD0
:100FD00006F01FF906F062FA386018EE100A06F003
:100FE0004AFA41EC100B53EC1B2B0AE0286806F080
:100FF00042FA53EC192B06F00CF906F04FFA286070
:10100000D7E751EC100B06F004F906F047FA08EEAA
:10101000100A5EE0D6ED000AB7EE000A53E003289E
:1010200002D004280CD054E0062C03D204F10104B1
:10103000E4B202E001D14FF00004B0EE688A48E06B
:10104000072C46D2DFE804F0450406081C303B00BC
:10105000474602E04F4614E05746386806F00BFA60
:1010600053EC1A2B06F0D5F806F018FA386018EE93
:10107000100A06F000FA41EC100B53EC1A2BC0E7F3
:101080005F46386806F0F7F953EC1C2B06F0C1F800
:1010900006F004FA386018EE100A06F0ECF941EC9C
:1010A000100B53EC1C2BACE7286806F0E4F953EC6A
:1010B0001A2B06F0AEF806F0F1F92860D7E7D6ED66
:1010C000000AB0EE000A70EE800A38EE008AC6ED23
:1010D000000A142000F097F957480C27009790ED6C
:1010E000030A0223052224213C2001F0D9FD5348A4
:1010F0000097022390ED030A05222421002001F02D
:10110000CFFD4F480097022390ED030A05221821D6
:101110003C2001F0C5FD4B480097022390ED030AE7
:1011200005220C213C2001F0BBFD4748009702231B
:1011300090ED030A05221821002001F0B1FD43487B
:101140000097022390ED030A05220C21002001F0F4
:10115000A7FD00EE104A02230522B8EE400A302116
:101160000020009701F09CFD02230522B0EE480A02
:1011700030213C20009701F093FD01F02EFCBAE6EF
:10118000000000005C0000206000002064000020DF
:10119000680000207C0000208000002084000020E7
:1011A000880000208C000020900000209400002087
:1011B000980000209A9999999999C93F333333330C
:1011C0003333D33F24000020280000202C000020CF
:1011D000300000209A9999999999E13F34000020B4
:1011E0009A9999999999E93F38000020880100203F
:1011F00090010020FFFFF83CFFFF2C00FFFFF8BC30
:1012000080010020A40000203C030020F802002000
:1012100080030020C40300204C0400209004002020
:10122000D40400205C050020A0050020001002402E
:10123000010000200A0000201402002034020020D7
:1012400094010020B4010020D4010020F40100200A
:101250007047FEE7FEE7FEE7FEE77047704770471E
:10126000704700000CB500225449009201920868B2
:1012700040F4803008604FF4A043086800F4003068
:1012800001900098401C0090019810B90098984275
:10129000F3D10868800334D50120019047484030DD
:1012A000026842F0805202604548026842F44042BF
:1012B00002604248083002680260026842F400425C
:1012C0000260026842F4A0520260031F3D4A1A60A5
:1012D0000A6842F080720A600A689201FCD53A49B5
:1012E00040F205720A60016821F0030101600168A3
:1012F00041F0020101600168C1F381010229FAD1C4
:101300000CBD01920CBD314810B5016841F470016B
:1013100001602A48016841F001010160274A00216B
:101320000832116002682A4B1A400260031D294AE4
:101330001A60026822F48022026020480C300160AA
:10134000FFF790FF21494FF000608039086010BD21
:1013500070B51A4D083528681F4B204910F00C0055
:1013600004D05E10042803D0082803D00B601BE0D3
:101370000E6019E0114A121D1068C0F38054106805
:1013800000F03F0014B1B6FBF0F001E0B3FBF0F069
:1013900013681268C3F388135843C2F30142521C06
:1013A0005200B0FBF2F0086028680C4AC0F303104A
:1013B000121D105C0A68C2400A6070BD003802400D
:1013C0000070004008544007003C024088ED00E0F7
:1013D000FFFFF6FE103000240024F400A8000020D7
:1013E00010B504466FF0040004F086FB2949E008BC
:1013F00000EB40020870C2EBC0104FF6FF7202EA29
:10140000C000488010BD2349097848434FF0E021CF
:10141000486100238B61086940F001000861086998
:10142000C20701D0C003FAD5086920F001000861A5
:101430008B6170471749498848434FF0E021486164
:1014400000238B61086940F0010008610869C20748
:1014500001D0C003FAD5086920F0010008618B6152
:10146000704770B54FF40776B0FBF6F1CCB2B0FB25
:10147000F6F106FB110504E03046FFF7DBFF641EC2
:10148000E4B2002CF8D1002D03D02846BDE870400E
:10149000D0E770BDBC0000209FEDFE0AFE4880ED45
:1014A000000ADFEDFE0AB2EE041AC0ED070A80ED75
:1014B000080A80ED050A80ED0F0ADFEDF90A80EDDC
:1014C0000D0AC0ED090A80ED0E1A443880ED000ABD
:1014D000DFEDF21AC0ED071A80ED080A80ED050A6B
:1014E00080ED0F0A80ED0D0AC0ED090A80ED0E1A9D
:1014F000DFEDEC1AA0F6C400C0ED001A80ED071A6B
:1015000080ED080A80ED050A80ED0F0A80ED0D0AD6
:10151000443080ED000ADFEDE41AC0ED071A80EDDB
:10152000080A80ED050A80ED0F0A80ED0D0AF7EE3E
:10153000041AC0ED091AF1EE081AC0ED0E1A443073
:1015400080ED000ADFEDD91AC0ED071A80ED080A18
:1015500080ED050A80ED0F0ADFEDD51AC0ED0D1AFA
:10156000DFEDD41AC0ED091ADFEDD31AC0ED0E1A63
:10157000443080ED000ADFEDD11AC0ED071A80ED8E
:10158000080A80ED050A80ED0F0ADFEDCD1AC0EDE7
:101590000D1ADFEDCC1AC0ED091ADFEDCB1AC0ED44
:1015A0000E1ACC3080ED000ADFEDC81AC0ED071A24
:1015B00080ED080AF0EE001AC0ED051AF7EE001AE9
:1015C000C0ED0F1ADFEDBE1AC0ED0D1ADFEDC01A27
:1015D000C0ED091ADFEDBF1AC0ED0E1A883880ED94
:1015E000000ADFEDB61AC0ED071A80ED080A80ED9B
:1015F000050A80ED0F0ADFEDB21AC0ED0D1ADFED1E
:10160000B11AC0ED091ADFEDB01AC0ED0E1A443060
:1016100080ED000ADFEDB01AC0ED071A80ED080A70
:1016200080ED050A80ED0F0ADFEDA51AC0ED0D1A59
:10163000DFEDAA1AC0ED091ADFEDA91AC0ED0E1AE6
:10164000883080ED000ADFEDA11AC0ED071A80EDA9
:10165000080AF0EE001AC0ED051AF7EE001AC0ED08
:101660000F1ADFED971AC0ED0D1ADFED991AC0EDD4
:10167000091ADFED9B1AC0ED0E1A443080ED000A06
:10168000DFED981AC0ED071A80ED080A80ED050A13
:1016900080ED0F0A80ED0D0AF7EE081AC0ED091A69
:1016A000F2EE0E1AC0ED0E1A443080ED000ADFEDA6
:1016B000811AC0ED071A80ED080A80ED050A80ED59
:1016C0000F0ADFED7B1AC0ED0D1ADFED761AC0EDC3
:1016D000091ADFED851AC0ED0E1A443080ED000ABC
:1016E000DFED821AC0ED071A80ED080A80ED050AC9
:1016F00080ED0F0A80ED0D0AF7EE081AC0ED091A09
:10170000F3EE0E1AC0ED0E1A443080ED000ADFED44
:10171000781AC0ED071A80ED080A80ED050A80ED01
:101720000F0ADFED671AC0ED0D1ADFED6B1AC0ED81
:10173000091ADFED631AC0ED0E1ADFED6E1A4430A0
:10174000C0ED001A9FED6C2A80ED072A80ED080A93
:1017500080ED050A80ED0F0A80ED0D0AC0ED090A43
:10176000B2EE082A80ED0E2A4430C0ED001A9FED3B
:10177000622A80ED072A80ED080A80ED050A80EDD7
:101780000F0A80ED0D0AC0ED090AB2EE082A80EDBD
:101790000E2A4430B1EE042AC0ED001AC0ED070A4B
:1017A00080ED080A80ED050A80ED0F0A80ED0D0A34
:1017B000C0ED090A80ED0E2A4430B1EE042AC0EDD6
:1017C000001AC0ED070A80ED080A80ED050A80EDD9
:1017D0000F0A80ED0D0AC0ED090A80ED0E2A9FED7B
:1017E000472A443080ED002AC0ED070A80ED080A40
:1017F00080ED050A80ED0F0A80ED0D0AC0ED090AA3
:10180000B1EE042A80ED0E2A9FED3C2A443080ED93
:10181000002AC0ED070A80ED080A80ED050A80ED78
:101820000F0A80ED0D0AC0ED090AB1EE042A80ED21
:101830000E2A44309FED322AC0ED001A80ED072AAF
:101840009FED302A80ED082A9FED2F2A80ED052A92
:101850009FED2E2A80ED0F2AB1EE002A80ED0D2A91
:1018600080ED090A80ED0E1A8830B1EE042AC0ED31
:10187000001AC0ED070A80ED080A80ED050A80ED28
:101880000F0A80ED0D0AC0ED090A80ED0E2A4438DA
:101890003EE0000000000000BC0B00209A99993E39
:1018A000CDCC4C3E000048423333333F00008243EE
:1018B0000000FA440000164300002F450000C44217
:1018C00000001644000048430000E1440000C84303
:1018D000000096430000AF440000C84200008C4264
:1018E00000004844EC51383F000096449A99193F53
:1018F0000000704300009642713D0A3E00005242D3
:10190000CDCCCC3DA69BC43A0AD7A33B17B7D13860
:10191000C0ED001AC0ED070A80ED080A80ED050A47
:1019200080ED0F0A80ED0D0AC0ED090AF1EE040A00
:10193000C0ED0E0ADFEDFE0A8830C0ED000ADFEDD3
:10194000FD0AC0ED070A80ED080A80ED050A80ED6A
:101950000F0A80ED0D0AF5EE000AC0ED090AF2EE5D
:10196000000AC0ED0E0ADFEDF20A4430C0ED000AB5
:10197000DFEDF00AC0ED070A80ED080A80ED050AE8
:1019800080ED0F0A80ED0D0AF5EE000AC0ED090AA0
:10199000F2EE000AC0ED0E0ADFEDE50A4430C0EDBC
:1019A000000ADFEDE50AC0ED070A80ED080A80EDC8
:1019B000050A80ED0F0A80ED0D0AF5EE000AC0ED74
:1019C000090AF2EE000AC0ED0E0ADFEDD90A443032
:1019D000C0ED000ADFEDD90AC0ED070A80ED080A64
:1019E00080ED050A80ED0F0A5FED3B0A80ED0D0AE0
:1019F000C0ED090AF1EE040AC0ED0E0ADFEDCC0AD3
:101A00004430C0ED000ADFEDCB0AC0ED070A80EDDF
:101A1000080A80ED050A80ED0F0A80ED0D0AF5EE4B
:101A2000000AC0ED090AF2EE000AC0ED0E0ADFED71
:101A3000C00A4430C0ED000ADFEDBE0AC0ED070A5F
:101A400080ED080A80ED050A80ED0F0A80ED0D0A91
:101A5000F5EE000AC0ED090AF2EE000AC0ED0E0A2A
:101A6000DFEDB30A4430C0ED000A5FED680AC0ED57
:101A7000070AF0EE080AC0ED080A80ED051AF7EE35
:101A8000000AC0ED0F0A80ED0D0A80ED090A5FED36
:101A9000700AC0ED0E0ADFEDA60A4430C0ED000A60
:101AA0005FED760AC0ED070AF0EE080AC0ED080AFD
:101AB00080ED051AF7EE000AC0ED0F0A5FED7C0A13
:101AC000C0ED0D0A80ED090A5FED7F0AC0ED0E0A38
:101AD0004430C0ED001A5FED830AC0ED070AF0EE56
:101AE000080AC0ED080A80ED051AF7EE000AC0EDFD
:101AF0000F0A5FED850AC0ED0D0A80ED090ADFEDE2
:101B0000900AC0ED0E0A4430C0ED001A5FED910A54
:101B1000C0ED070AF0EE080AC0ED080A80ED051ACC
:101B2000F7EE000AC0ED0F0A5FED930AC0ED0D0A53
:101B300080ED090ADFED820AC0ED0E0A5FED990A19
:101B40004430C0ED000ADFED7F0AC0ED070A80EDEA
:101B5000080A80ED050A80ED0F0A80ED0D0A80ED80
:101B6000090A80ED0E1A5FEDA30A4430C0ED000AA9
:101B7000DFED740AC0ED070A80ED080A80ED050A62
:101B800080ED0F0A80ED0D0A80ED090A80ED0E1A36
:101B9000704780ED020AD0ED050AB4EEE00AF1EEDE
:101BA00010FA0DD2F1EE600AB4EEE00AF1EE10FA8E
:101BB00006DDD0ED040A90ED0F1A40EE010A01E0B7
:101BC0005FEDCC0AC0ED040AB0EE601AD0ED0D0A4C
:101BD000B4EEE01AF1EE10FA06DCF1EE600AB4EEB3
:101BE000E01AF1EE10FA01D2C0ED040AD0ED030ABA
:101BF00070EE600AC0ED060A90ED071A21EE001A99
:101C000080ED0A1AD0ED081A90ED042A61EE821ACE
:101C1000C0ED0B1A90ED092A31EE211A62EE200A6E
:101C2000C0ED0C0A71EE200A90ED0E1AB5EEC01A46
:101C3000F1EE10FA0DD0B4EEE01AF1EE10FA06D380
:101C4000B1EE411AB4EEE01AF1EE10FA01DDF0EE59
:101C5000410A80ED030AC0ED100A70473A4900B509
:101C6000D1ED000A084630EEC00A81ED020AFFF706
:101C700090FF364891ED100A80ED000A344880ED5F
:101C8000000A00BD304900B544310846D1ED000AD4
:101C900030EEC00A81ED020AFFF77BFF2D4891ED7F
:101CA000100A80ED000A2C4880ED000A00BD26498C
:101CB00000B588310846D1ED000A30EEC00A81ED4A
:101CC000020AFFF766FF91ED100A2048B1EE400AC4
:101CD00080ED000A1E4880ED000A00BD1A4900B5DB
:101CE000CC310846D1ED000A30EEC00A81ED020A7F
:101CF000FFF74FFF91ED100A1648B1EE400A80ED54
:101D0000000A154880ED000A00BD144900B5D1ED68
:101D1000000A084630EEC00A81ED020AFFF739FFDB
:101D200091ED100A0948B1EE400A80ED000A17E073
:101D3000000070420AD7A33EB81E853EEC51383EE3
:101D400000007A44CDCCCC3EE40500205C000020AD
:101D5000600000206400002068000020F4060020DD
:101D6000F94880ED000A00BDF84900B5D1ED000A40
:101D7000084630EEC00A81ED020AFFF70AFF91ED36
:101D8000100AF348B1EE400A80ED000AF14880EDF8
:101D9000000A00BDED4900B544310846D1ED000A06
:101DA00030EEC00A81ED020AFFF7F3FEEA4891ED3A
:101DB000100A80ED000AE44880ED000A00BDE34906
:101DC00000B588310846D1ED000A30EEC00A81ED39
:101DD000020AFFF7DEFEDE4891ED100A80ED000AF0
:101DE000DC4880ED000A00BDD84900B5CC3108467A
:101DF000D1ED000A30EEC00A81ED020AFFF7C9FEFC
:101E0000D54891ED100A80ED000ACF4880ED000A18
:101E100000BDD24900B5D1ED000A084630EEC00A37
:101E200081ED020AFFF7B5FE91ED100ACA48B1EE46
:101E3000400A80ED000AC64880ED000A00BDC7498F
:101E400000B544310846D1ED000A30EEC00A81EDFC
:101E5000020AFFF79EFE91ED100ABB48B1EE400A60
:101E600080ED000ABB4880ED000A00BDBB4900B50B
:101E700088310846D1ED000A30EEC00A81ED020A31
:101E8000FFF787FE91ED100AB348B1EE400A80EDEE
:101E9000000AAF4880ED000A00BDB04900B5CC3162
:101EA0000846D1ED000A30EEC00A81ED020AFFF7C4
:101EB00070FE91ED100AA448B1EE400A80ED000AD0
:101EC000A44880ED000A00BDA54900B5D1ED000A87
:101ED000084630EEC00A81ED020AFFF75AFE9E481E
:101EE00091ED100A80ED000A994880ED000A00BDCE
:101EF0009B4900B544310846D1ED000A30EEC00AD6
:101F000081ED020AFFF745FE8F4891ED100A80ED42
:101F1000000A904880ED000A00BD2DE9F05F914A6B
:101F200001462DED068B1046D2ED000A30EEC00AB8
:101F300082ED020AFFF72DFE834C864D9FED8A9BB2
:101F4000854E834FDFF82882DFF82892DFF828A239
:101F5000DFF828B201292AD0052928D0092926D05E
:101F60008048443890ED020ADFED858A9FED85AA0E
:101F700092ED108A18EE100AB1EE480A86ED000ABA
:101F800087ED000A05F077FA53EC192B05F0E8F914
:101F900005F084FA206018EE100A05F06CFA53EC94
:101FA000192B05F0DDF905F079FA286045E092ED8E
:101FB000020ADFED758A9FED75AAB5EEC00AF1EE53
:101FC00010FA92ED108A1CDDB1EE480A84ED000A89
:101FD00085ED000A18EE100A05F04DFA53EC192BA6
:101FE00005F0BEF905F05AFA306018EE100A05F057
:101FF00042FA53EC192B05F0B3F905F04FFA3860AB
:102000001BE018EE100A05F036FA53EC192B05F018
:10201000A7F905F043FA306018EE100A05F02BFA24
:1020200053EC192B05F09CF905F038FAB1EE480A8B
:10203000386084ED000A85ED000A28EE280A68EE73
:102040000A0A88ED000AC9ED000ACAED000A8BED04
:10205000000ABDEC068BBDE8F09F2DE9F05F414A18
:1020600001462DED068B443A1046D2ED000A30EEC3
:10207000C00A82ED020AFFF78CFD9FED459B364CAE
:10208000334D314E334FDFF8E880DFF8E890DFF86A
:10209000E8A0DFF8E8B0012932D0052930D00929BD
:1020A0002ED092ED108A92ED020A84ED008ADFEDC7
:1020B000378A9FED35AA85ED008A18EE100A05F0E3
:1020C000DAF953EC192B05F04BF905F0E7F930601C
:1020D00018EE100A05F0CFF953EC192B05F040F972
:1020E00005F0DCF9386028EE280A68EE0A0A88ED67
:1020F000000AC9ED000ACAED000A8BED000AA8E744
:1021000092ED108A92ED020ADFED1E8A9FED1CAA65
:1021100018EE100A05F0AFF953EC192B05F020F971
:1021200005F0BCF9206018EE100A05F0A4F953EC94
:10213000192B05F015F905F0B1F9286086ED008A34
:1021400087ED008ACFE700006000002038070020FC
:1021500064000020680000205C0000204808002087
:1021600058090020BC0B0020666666666666E6BFFE
:102170007C000020800000208400002088000020D7
:1021800000008CC20000C8420000C8C200008C429F
:10219000666666666666E63FFF4900B591ED001A21
:1021A000F0EE602A084631EE400A81ED020AFFF7A0
:1021B000F0FC91ED100AF948B1EE400A80ED000AFA
:1021C000F74880ED000A91ED000AF34830EE620A0C
:1021D00081ED020AFFF7DDFC91ED100AF148B1EE46
:1021E000400A80ED000AF04880ED000A00BDEA498F
:1021F00000B54431F0EE602A91ED001A084631EE48
:10220000400A81ED020AFFF7C4FCE44891ED100A90
:1022100080ED000AE24880ED000A91ED000ADE48F8
:1022200030EE620A443081ED020AFFF7B2FCDD486D
:1022300091ED100A80ED000ADB4880ED000A00BD38
:10224000DA4900B5D1ED000A084630EEC00A81ED4A
:10225000020AFFF79EFCD64891ED100A80ED000AB5
:10226000D448F1EE400AC0ED000AD348C0ED000AA0
:10227000D24880ED000A00BDCC4900B54431084683
:10228000D1ED000A30EEC00A81ED020AFFF781FCB1
:1022900091ED100AC648F1EE400AC0ED000AC548AB
:1022A00080ED000AC44880ED000AC448C0ED000A71
:1022B00000BDB94900B588390846D1ED000A30EEB5
:1022C000C00A81ED020AFFF764FC91ED100AB848DC
:1022D000F1EE400AC0ED000AB64880ED000AB648AB
:1022E00080ED000AB548C0ED000A00BDAA4900B55E
:1022F00044390846D1ED000A30EEC00A81ED020AE9
:10230000FFF747FC91ED100AA948F1EE400AC0ED35
:10231000000AA84880ED000AA74880ED000AA748F7
:10232000C0ED000A00BDA64900B5D1ED000A08467F
:1023300030EE600A81ED020AFFF72BFC974891ED21
:10234000100A80ED000A964880ED000A9FED9D0A74
:10235000944880ED000A944880ED000A00BD984939
:1023600000B5D1ED000A084630EEC00A81ED020A40
:10237000FFF70FFC894891ED100A80ED000A8848AC
:1023800080ED000A874880ED000A874880ED000A4A
:1023900000BD8B4800B5883000F5AA71D0ED000A69
:1023A000084630EE600A81ED020AFFF7F2FB7D4835
:1023B00091ED100A80ED000A7B4880ED000A00BD17
:1023C0007F4800B5883000F5EE71D0ED000A084670
:1023D00030EE600A81ED020AFFF7DBFB714891EDF8
:1023E000100A80ED000A704880ED000A00BD7449B3
:1023F00000B544310846D1ED000A30EEC00A81ED47
:10240000020AFFF7C6FB91ED100A6948F1EE400A97
:10241000C0ED000A674880ED000A6748C0ED000A79
:10242000664880ED000A00BD654900B58831084660
:10243000D1ED000A30EE600A81ED020AFFF7A9FB38
:10244000D1ED100AB1EE040A5F4820EE800AB9EE21
:10245000041A80ED000A60EE810A5C48C0ED000AB3
:102460005B4880ED000A5B48C0ED000A00BD54499E
:1024700000B5CC310846D1ED000A30EE600A81ED9E
:10248000020AFFF786FBD1ED100AB1EE040A4E48AE
:1024900020EE800AB9EE041A80ED000A60EE810A8F
:1024A0004A48C0ED000A4A4880ED000A4948C0ED9C
:1024B000000A00BD484900B5D1ED000A084630EEDB
:1024C000600A81ED020AFFF764FBD1ED100AB1EE5C
:1024D000040A3D4820EE800AB9EE041A80ED000A95
:1024E00060EE810A3948C0ED000A394880ED000AE3
:1024F0003848C0ED000A00BD384900B5D1ED000AEA
:10250000084630EEC00A81ED020AFFF742FB91ED6A
:10251000100A2748F1EE400AC0ED000A254880ED78
:10252000000A2548C0ED000A244880ED000A00BDDD
:1025300010B523482DED048B883000F1CC01D0ED8F
:10254000000ACC3030EE600A81ED020AFFF721FB71
:102550000C6C204604F08FFF9FED218B53EC182B61
:1025600004F0FEFE04F09AFF17490860204604F0CC
:1025700082FF9FED1D9B53EC192B04F0F1FE04F03C
:102580008DFF12490860204604F075FF53EC182BAC
:1025900004F0E6FE2CE00000F00A00205C000020C1
:1025A000600000206400002068000020E009002096
:1025B0007C00002080000020840000208800002093
:1025C000F8020020000000008C0000209000002095
:1025D0009400002098000020080400201805002026
:1025E000333333333333E33F333333333333E3BFC3
:1025F00004F054FFBF490860204604F03CFF53EC50
:10260000192B04F0ADFE04F049FFBB490860BDEC96
:10261000048B10BDB94910B5D1ED000A084630EE63
:10262000C00A81ED020AFFF7B4FA0C6C204604F0F0
:1026300022FF9FEDB31B53EC112B04F091FE04F02D
:102640002DFFB1490860204604F015FF9FEDAF1B38
:1026500053EC112B04F084FE04F020FFAD49086018
:10266000204604F008FF1FED221B53EC112B04F051
:1026700077FE04F013FF9F490860204604F0FBFE3C
:102680001FED271B53EC112B04F06AFE04F006FF2C
:102690009949086010BDA04800B5D0ED000A00F5CA
:1026A0000871084630EEC00A81ED020AFFF771FAA0
:1026B00091ED100A9948F1EE400AC0ED000A9848E1
:1026C00080ED000A9748C0ED000A974880ED000AA7
:1026D00000BD2DE9F05F954A01462DED068B1046B1
:1026E000D2ED000A30EEC00A82ED020AFFF751FA7D
:1026F0008F4C904D9FED909B914E924FDFF81C8236
:10270000DFF81C92DFF81CA2DFF81CB2012928D0E8
:10271000052926D0092924D092ED020ADFED8A8A04
:102720009FED8AAA92ED108A18EE100AB1EE480ABF
:1027300086ED000A87ED000A04F09DFE53EC192B8C
:1027400004F00EFE04F0AAFE206018EE100A04F059
:1027500092FE53EC192B04F003FE04F09FFE286058
:1027600045E092ED020ADFED7A8A9FED7AAAB5EE96
:10277000C00AF1EE10FA92ED108A1CDDB1EE480AA3
:1027800084ED000A85ED000A18EE100A04F073FECD
:1027900053EC192B04F0E4FD04F080FE306018EED9
:1027A000100A04F068FE53EC192B04F0D9FD04F074
:1027B00075FE38601BE018EE100A04F05CFE53EC66
:1027C000192B04F0CDFD04F069FE306018EE100AFC
:1027D00004F051FE53EC192B04F0C2FD04F05EFE30
:1027E000B1EE480A386084ED000A85ED000A28EE53
:1027F000280A68EE0A0A88ED000AC9ED000ACAED47
:10280000000A8BED000A24E42DE9F05F474A0146F7
:102810002DED068B443A1046D2ED000A30EEC00A88
:1028200082ED020AFFF7B5F99FED4B9B444C454DF5
:102830003F4E404FDFF8E480DFF8E490DFF8E4A09B
:10284000DFF8E4B0012932D0052930D009292ED093
:1028500092ED020ADFED428A9FED42AA92ED108AC4
:1028600084ED008A85ED008A18EE100A04F003FE5C
:1028700053EC192B04F074FD04F010FE306018EED8
:10288000100A04F0F8FD53EC192B04F069FD04F074
:1028900005FE386028EE280A68EE0A0A88ED000A6C
:1028A000C9ED000ACAED000A8BED000A27E492ED9B
:1028B000108A92ED020ADFED258A9FED23AA18EE19
:1028C000100A04F0D8FD53EC192B04F049FD04F074
:1028D000E5FD206018EE100A04F0CDFD53EC192B35
:1028E00004F03EFD04F0DAFD286086ED008A87EDF5
:1028F000008ACFE794000020980000209004002078
:102900001F85EB51B81EE53F8C0000201F85EB5161
:10291000B81EE5BF90000020800300207C0000204E
:10292000800000208400002088000020BC0B0020D4
:102930006000002068000020CDCCCCCCCCCCECBF1B
:102940005C000020640000200000B4420000C8C207
:102950000000C8420000B4C2CDCCCCCCCCCCEC3F03
:10296000000090C20000A0421CB50121042003F029
:10297000D4FC42F23000009001208DF804000021C8
:102980008DF806108DF8070003208DF805006946C4
:10299000014803F0BFFA1CBD0008024030B5FE4AF2
:1029A000C2F8B4120024C2F8B04221460123C2F892
:1029B000BC42050602D5C2F8B83201E0C2F8B842FE
:1029C000C2F8BC324006491C000EC9B20829EED339
:1029D000C2F8B032C2F8B43230BD70B5EF4E002547
:1029E00005F1B000C0B20021FFF7D8FF0021084672
:1029F000FFF7D4FF00211020FFF7D0FF002406EBE3
:102A0000C4000121405DFFF7C9FF641CE4B2802CC3
:102A1000F5D36D1CEDB2082DE2D370BD00B50021D9
:102A20008D20FFF7BBFF00211420FFF7B7FF002127
:102A3000AF205DF804EBB1E700B500218D20FFF772
:102A4000ADFF00211020FFF7A9FF0021AE205DF8A7
:102A500004EBA3E710B50021D04B0A46002003EB9E
:102A6000C004401CC0B262548028F8D3491CC9B2CB
:102A70000829F3D310BD10B57F2816D83F2914D8E4
:102A80000723A3EBD10301F00701C1F107040121E2
:102A9000A140C24CDBB204EBC000002AC25CC9B248
:102AA00001D00A4300E08A43C25410BD2DE9F04131
:102AB0001E4694460F460546DDF818800CE03C465D
:102AC00006E0424621462846FFF7D5FF641CE4B2E3
:102AD000B442F6D96D1CEDB26545F0D9BDE8F041C0
:102AE0007BE72DE9F04F82461E460F468946580780
:102AF00000D0012000EBD600710810FB01F0203A55
:102B000000F0FF0B02F0FF08002539E00C2E0FD07B
:102B1000102E11D0182E35D1A14908EBC80001EBB9
:102B200080004FF0000C445D200609D5099A0AE0A8
:102B300008EB48009B49F2E79B4901EB0810F0E7DE
:102B4000099890B1002239465046FFF794FF60067D
:102B50007F1C040EFFB2A7EB0900B04207D10AF1B7
:102B600001004F4600F0FF0A08E00122EBE70CF1FC
:102B7000010C0CF0FF0CBCF1080FD5D36D1CEDB2AD
:102B80005D45C3D3BDE8F08F0346012000E0584304
:102B9000491EC9B2FBD270472DE9FF4F81B0002713
:102BA000DDF838B01D46924680463C464FF001099C
:102BB0004FEA5B0627E0281B401EC1B20A20FFF740
:102BC000E3FFBAFBF0F00A21B0FBF1F201FB1200C7
:102BD00027B9691E8C4201DA48B101273030C2B2F0
:102BE00006FB0480C0B25B46CDF8009006E006FB11
:102BF0000480C0B25B462022CDF800900299FFF716
:102C000070FF641CE4B2AC42D5D305B0BAE72DE93D
:102C1000F84704461F46802016460D46A0EB57098C
:102C2000C3F140084FF0010A16E0A14502D200248A
:102C3000E819C5B2A84503DA00242546FFF70AFFC4
:102C4000CDF800A032783B4629462046FFF749FFE1
:102C500004EB5700C4B2761C307820385E28E4D9E3
:102C6000BDE8F8872DE9F8411F46079D1600884604
:102C700000F105042B4607D54CA2FFF7C8FFE0B2D0
:102C80003B467242009506E049A2FFF7C0FFE0B262
:102C90003B46324600954146FFF77EFFBDE8F8818E
:102CA0002DE9FF4F05462DED020B82B0C01D119C92
:102CB00000F0FF0891464FEA540A08F101010AFBAF
:102CC0000910DFED3C0AB5EEC00AC7B207EB5406A7
:102CD000F1EE10FAF0B20190234609D233A2284651
:102CE0000599FFF794FF9FED341A20EE010A06E0E4
:102CF0002FA228460599FFF78AFF20EE200A0094AC
:102D00004B46404680EE201A0599FCEEC10A10EEB3
:102D1000902AFFF741FF234628A238460599FFF77E
:102D200076FF079864224FF00A0801284CD0ED1D69
:102D3000EDB263086D1C03FB095324F00101DBB203
:102D4000CD184FF0010B022849D0032874D1BDEEF5
:102D5000C00A4FF47A78414610EE100A90FBF1F267
:102D600008FB12000A2869DA0094F0B2012300225D
:102D70000599FFF711FF0094E8B20123002205999D
:102D8000FFF70AFF10EE100A5B4690FBF8F208FB13
:102D900012020AEB4A0013E000804042000C0020BF
:102DA000AC8C000848820008BC8600082D0000009A
:102DB0002000000000007A4400007AC42E000000C9
:102DC0003844C0B2009452E0BDEEC00A10EE100AC2
:102DD00090FBF2F090FBF8F108FB110226E0BDEE4B
:102DE000C00A174610EE100A90FBF8F191FBF2F2C0
:102DF00007FB12100A2811DA0094F0B20123002216
:102E00000599FFF7C9FE10EE100A5B46009490FB8F
:102E1000F8F191FBF7F207FB121227E010EE100A0F
:102E200090FBF8F191FBF7F207FB12120094079B5D
:102E300005990198FFF7B0FE08B0A3E610EE100A5E
:102E40000F4690FBF7F107FB1100642811DA00949C
:102E5000F0B2012300220599FFF79EFE10EE100A42
:102E60000223009490FBF7F107FB1102E8B20599E9
:102E7000E0E710EE100A90FBF7F107FB1102D5E72F
:102E80002DE9F04780466A480C468C464FF0200AF0
:102E900000EB42190027002519F80760300601D51C
:102EA000012200E0002221464046FFF7E4FD7006C3
:102EB000641C060EE4B2A4EB0C00102809D06D1CB3
:102EC000EDB2082DEAD37F1CFFB25745E3D3BDE82E
:102ED000F08708F10100644600F0FF08F3E72DE9F0
:102EE000FC470121022003F018FA01248DF8044068
:102EF00000208DF8060003208DF80500DFF83491DE
:102F00004FF4805500958DF807406946484603F018
:102F100001F8660369464846009602F0FBFFA703E6
:102F200069464846009702F0F5FF4FF400486946AD
:102F30004846CDF8008002F0EDFF2946484603F0F0
:102F400050F83146484603F04CF83946484603F0FD
:102F500048F84146484603F044F83748C0F8B042C4
:102F60000021AE20FFF71AFD0021D520FFF716FD46
:102F70000021F020FFF712FD0021A820FFF70EFD31
:102F800000213F20FFF70AFD0021D320FFF706FDB7
:102F900000210846FFF702FD00214020FFF7FEFC5C
:102FA00000218D20FFF7FAFC00211420FFF7F6FC2A
:102FB00000212020FFF7F2FC00210220FFF7EEFCA9
:102FC0000021A120FFF7EAFC0021C020FFF7E6FC6A
:102FD0000021DA20FFF7E2FC00211220FFF7DEFCDF
:102FE00000218120FFF7DAFC0021EF20FFF7D6FC5B
:102FF0000021D920FFF7D2FC0021F120FFF7CEFC01
:103000000021DB20FFF7CAFC00213020FFF7C6FCBF
:103010000021A420FFF7C2FC0021A620FFF7BEFC80
:103020000021AF20FFF7BAFCFFF714FDBDE8FC87D5
:10303000C000002000040240008040422DE9F14F12
:1030400096B00121102003F090F90121880503F0CA
:1030500064F946208DF8440001258DF84550002480
:103060008DF846408DF8475011A802F004FDDFF8B6
:1030700014B3584602F052FDEE064FF00F084FF41D
:10308000806900964FF0400ACDE90484CDE90694AA
:10309000BE48CDF80CA0BC4F0894CDE9017068047F
:1030A000CDE90940CDE90B450D94694658460E948B
:1030B00002F0BCFD01221021584602F065FE0122FB
:1030C0008021381F04F03BF80021584602F0E7FD4C
:1030D0000121880503F021F9DFF8A8B2ABF1780BE4
:1030E000584602F01BFDA94802A90F3881E81101DA
:1030F000CDE905492802CDE908404FF440300A9057
:10310000079469465846CDE9006702F08FFD01211A
:10311000584602F0C4FD01224021381F04F00FF888
:10312000ADF850400C20ADF852001698ADF84C4068
:103130001290ADF84E40ADF8544012A9381F03F07C
:10314000F6FE25208DF8440002268DF845608DF8A6
:1031500046608DF8475011A802F08DFC01228021B5
:10316000381F03F0ECFF01224021381F03F0E7FF76
:10317000002240F22661381F03F0E9FF002240F2EE
:103180002551381F03F0E3FF002240F22771381F5A
:1031900003F0DDFF012240F22441381F03F0D7FF86
:1031A0000121381F03F034FF0121022003F0B5F89C
:1031B000774F07220621384602F020FF07221146EA
:1031C000384602F01BFF8DF840608DF842408DF8C4
:1031D000435003208DF841000FA93846CDF83CA09C
:1031E00002F098FE80208DF840600F908DF84340EB
:1031F0000FA9384602F08EFE17B0BDE8F08F70B50B
:10320000604C0D4606464FF02051204602F0ABFDC3
:10321000201D05605B480C300660206840F001000E
:10322000206070BD10B5574C5A49783C204602F0DA
:103230009AFD0021204602F032FD0F21221D11606F
:103240002046BDE81040012102F029BD70B54E4C6A
:1032500040F22441241F204603F09BFF28B1204662
:1032600003F000FFBDE87040DCE740F22665294628
:10327000204603F08EFF002808D02946204603F0A0
:10328000A7FF4048016821F00101016070BD70B5E1
:10329000414D3C4C2946204602F08CFD002810D0C0
:1032A0002946204602F05FFD0021204602F0F7FC8F
:1032B000BDE870403448012240F22661001F03F04F
:1032C00046BF70BDFFB43148AA21413814250170B2
:1032D000FF214170F1218170C5709DF800100171CE
:1032E0009DF8011041719DF8041081719DF8051041
:1032F000C1719DF8081001729DF8091041729DF886
:103300000C1081729DF80D10C1729DF82010017390
:103310009DF8211041739DF8241081739DF82510AC
:10332000C1739DF8281001749DF8291041749DF80F
:103330002C1081749DF82D10C1749DF8301001750A
:103340009DF8311041759DF8341081759DF8351048
:103350000023C17518211C461A462D1D06E0865C07
:10336000521C3344DBB21C44E4B2D2B29542F6D8CC
:103370004354491C445404B00448F0BC4138491C2F
:103380003DE70000B86402400410014041100020F5
:103390000004024000803D10008000282DE9F14F1C
:1033A000012196B0480402F0D6FF0121480502F041
:1033B000B4FF11208DF8440002258DF845500024FB
:1033C0008DF8464001268DF8476011A802F053FBA6
:1033D000BD4802F0A3FB4FF48069CDE90549BC4824
:1033E00002A94FF0400A4FF00B0B0794089481E8B4
:1033F000010C2804CDE90940CDE90B46DFF8CC8269
:10340000AF06CDE900780D946946AF480E9402F0FE
:103410000DFC01221021AC4802F0B6FC01228021F3
:10342000A8F1040003F08BFE0021A74802F037FC4E
:103430000121480502F071FFA348183802F06EFB25
:10344000A34802A90B3881E81108CDE90549E80134
:10345000CDE908404FF440300A909B48CDE9007810
:1034600007946946183802F0E1FB974801211838A3
:1034700002F015FC01224021A8F1040003F05FFED8
:10348000ADF850400C20ADF852001698ADF84C4005
:103490001290ADF84E40ADF8544012A9A8F10400C6
:1034A00003F045FD26208DF844008DF845408DF849
:1034B00046508DF8476011A802F0DDFA0122802104
:1034C000A8F1040003F03BFE01224021A8F1040012
:1034D00003F035FE002240F22661A8F1040003F05B
:1034E00036FE002240F22551A8F1040003F02FFE21
:1034F000002240F22771A8F1040003F028FE012207
:1035000040F22441A8F1040003F021FE0121A8F1BA
:10351000040003F07DFD0121082002F0FEFE6D4F46
:1035200007220521384602F069FD072206213846A8
:1035300002F064FD8DF840508DF842408DF84360F4
:1035400003208DF8410020200F900FA9384602F08B
:10355000E1FC8DF840508DF843400FA93846CDF876
:103560003CA002F0D7FC17B0BDE8F08F70B50C4658
:1035700005465949544802F0F6FB534AA03AC2F8AE
:10358000A440C2F8AC5052F8A00F40F00100106007
:1035900070BD10B54C4C5149183C204602F0E3FB7D
:1035A0000021204602F07BFB474A0B21A03AC2F8DB
:1035B0008C102046BDE81040012102F070BB70B5B0
:1035C000424C40F22445241F2946204603F0E1FDE9
:1035D000A8B3204603F046FD3D49414A0B3908781F
:1035E000552836D14878532833D1C8795080897905
:1035F000DFED3C0A41EA002003B200EE103A918070
:10360000D380B8EEC00A60EE200A9FED370A20EEA4
:10361000800AD2ED040A30EE600ADFED340A82ED52
:10362000030A1078022802D0032809D011E010EE16
:10363000100A2F4988420CDD30EE600A07E013E0E3
:1036400010EE100A2B49884203D930EE200A82ED91
:10365000030A92ED030A294682ED020A204603F08E
:10366000B7FDBDE8704094E740F226652946204644
:1036700003F08FFD00280AD02946204603F0A8FD5C
:103680001148A03850F8A01F21F00101016070BD61
:1036900070B5194D0C4C2946204602F08BFB0028D2
:1036A00010D02946204602F05EFB0021204602F0A1
:1036B000F6FABDE870400548012240F22661001F7D
:1036C00003F045BD70BD0000A0600240044400400E
:1036D0005B100020000C024000002020408F0020E2
:1036E0008001002000000038000034430000B44393
:1036F00000003443000034C3008020202DE9F14F46
:10370000012196B0880402F026FE0121480502F04E
:1037100004FE0E208DF8440002258DF845508DF8EA
:10372000465001268DF8476011A802F0A4F9DFF891
:1037300024B3584602F0F2F9AF06C848DFF8188300
:103740000097CDE90180002440204FF00F094FF48D
:10375000806A0390CDE90494CDE906A4C0020894E0
:10376000CDE90940CDE90B460D94694658460E94C3
:1037700002F05CFA01221021584602F005FB0122FA
:103780008021A8F1040003F0DAFC0021584602F081
:1037900086FA0121480502F0C0FDDFF8B8B2ABF1AE
:1037A000300B584602F0BAF9AC4802A90F3881E84C
:1037B0001102CDE9054ACDE9007807940894EF019C
:1037C0004FF44030CDE909706946584602F02EFAB0
:1037D0000121584602F063FA01224021A8F10400B9
:1037E00003F0ADFCADF850400C20ADF85200169837
:1037F000ADF84C401290ADF84E40ADF8544012A9CF
:10380000A8F1040003F093FB27208DF844008DF805
:1038100045408DF846508DF8476011A802F02BF90D
:1038200001228021A8F1040003F089FC012240213B
:10383000A8F1040003F083FC002240F22661A8F105
:10384000040003F084FC002240F22551A8F104009A
:1038500003F07DFC002240F22771A8F1040003F080
:1038600076FC012240F22441A8F1040003F06FFC31
:103870000121A8F1040003F0CBFB0121082002F094
:103880004CFDDFF8DC8107220821404602F0B6FB40
:1038900007220921404602F0B1FB8DF840508DF817
:1038A00042408DF8436003208DF841000FA9404647
:1038B0000F9702F02FFB28028DF840500F908DF8E3
:1038C00043400FA9404602F025FB17B0BDE8F08F3A
:1038D00070B50C4605464FF0C0515E4802F043FA01
:1038E0005C4A583AD4655566906D40F00100906589
:1038F00070BD10B5574C5B49303C204602F033FA9E
:103900000021204602F0CBF9524A0F21583AD162E9
:103910002046BDE81040012102F0C1B970B54E4CFF
:1039200040F22441241F204603F033FC28B12046F6
:1039300003F098FBBDE87040DBE740F226652946BE
:10394000204603F026FC002809D02946204603F033
:103950003FFC40485838816D21F00101816570BD00
:1039600070B5414D3B4C2946204602F023FA002811
:1039700010D02946204602F0F6F90021204602F038
:103980008EF9BDE870403448012240F22661001FE4
:1039900003F0DDBB70BDFFB43048AA2141381425C7
:1039A0000170FF214170F1218170C5709DF80010F8
:1039B00001719DF8011041719DF8041081719DF80D
:1039C0000510C1719DF8081001729DF8091041722F
:1039D0009DF80C1081729DF80D10C1729DF8201099
:1039E00001739DF8211041739DF8241081739DF897
:1039F0002510C1739DF8281001749DF82910417499
:103A00009DF82C1081749DF82D10C1749DF8301014
:103A100001759DF8311041759DF8341081759DF840
:103A200035100023C17518211C461A462D1D06E0CD
:103A3000865C521C3344DBB21C44E4B2D2B29542E1
:103A4000F6D84354491C445404B00448F0BC4138EF
:103A5000491C3DE75860024004480040A710002080
:103A6000000C0240408F0010008000182DE9F14F3B
:103A7000012196B0C80402F06EFC0121480502F055
:103A80004CFC0F278DF8447002258DF845504FF0FF
:103A9000030B8DF846B001268DF8476011A801F0A0
:103AA000EAFFC44802F03AF84FF00069C348DFF873
:103AB00008A3CDF80090CDE901A0002440204FF4E8
:103AC00080680390CDE90474CDE90684C0020894AF
:103AD000CDE90940CDE90B460D946946B5480E94F1
:103AE00002F0A4F801221021B24802F04DF901229F
:103AF0008021AAF1040003F022FB0021AD4802F06E
:103B0000CEF80121480502F008FCAA48303802F03E
:103B100005F8AA4802A90F3881E89100CDE90548C7
:103B2000E801CDE908404FF440300A90A148CDE9C2
:103B3000009A07946946303802F078F89D480121D0
:103B4000303802F0ACF801224021AAF1040003F061
:103B5000F6FAADF850400C20ADF852001698ADF8CA
:103B60004C401290ADF84E40ADF8544012A9AAF165
:103B7000040003F0DCF934208DF844008DF8454052
:103B80008DF846508DF8476011A801F074FF0122AE
:103B90008021AAF1040003F0D2FA01224021AAF107
:103BA000040003F0CCFA002240F22661AAF10400DE
:103BB00003F0CDFA002240F22551AAF1040003F0EF
:103BC000C6FA002240F22771AAF1040003F0BFFAFE
:103BD000012240F22441AAF1040003F0B8FA0121C5
:103BE000AAF1040003F014FA0121042002F095FB6D
:103BF000734F08220A21384602F000FA08220B21EE
:103C0000384602F0FBF98DF840508DF842408DF8AF
:103C100043608DF841B00FA93846CDF83C8002F0E2
:103C200079F9A8028DF840500F908DF843400FA904
:103C3000384602F06FF917B0BDE8F08F70B50C464A
:103C4000054660495B4802F08EF85A4A703A54675C
:103C5000D567106F40F00100106770BD10B5554C6E
:103C60005949303C204602F07EF80021204602F0FF
:103C700016F8504A0F21703A51642046BDE81040B2
:103C8000012102F00CB870B54B4C40F22441241FC6
:103C9000204603F07EFA28B1204603F0E3F9BDE8A0
:103CA0007040DBE740F226652946204603F071FAB2
:103CB000002809D02946204603F08AFA3D4870388A
:103CC000016F21F00101016770BD70B53F4D394CA6
:103CD0002946204602F06EF8002810D029462046DA
:103CE00002F041F80021204601F0D9FFBDE8704004
:103CF0003148012240F22661001F03F028BA70BD4E
:103D00007FB52E48AA21413814240170FF2141704B
:103D1000F1218170C4709DF8001001719DF80110AF
:103D200041719DF8041081719DF80510C1719DF8D5
:103D3000081001729DF8091041729DF80C108172F3
:103D40009DF80D10C1729DF8201001739DF821108F
:103D500041739DF8241081739DF82510C1739DF85F
:103D6000281001749DF8291041749DF82C1081745D
:103D70009DF82D10C1749DF8301001759DF831101B
:103D800041759DF83410817500229DF83510C1757C
:103D9000182513461146241D06E0465C491C324492
:103DA000D2B21344DBB2C9B28C42F6D842556D1C74
:103DB00043557FBD70600240044C0040F710002066
:103DC000000802402000002000803D1020800020DC
:103DD0007FB50D4604460121202002F0BCFA6D1E7D
:103DE000641EADF8005001940024104DADF802405F
:103DF000ADF808406946284602F0F4FB012211465E
:103E0000284602F078FF0121284602F063FC3720A3
:103E10008DF80C008DF80D4001208DF80E008DF806
:103E20000F0003A801F027FE7FBD00000014004032
:103E3000F0B50E4607468BB00121042002F08BFA44
:103E40000121082002F069FAF74D02220C212846D0
:103E500002F0D4F802220D21284602F0CFF8022207
:103E60000E21284602F0CAF802220F21284602F04D
:103E7000C5F84FF47040059002208DF8180000241A
:103E80008DF81A408DF81B0003208DF8190005A944
:103E9000284602F03FF8761EE44D7F1EADF81C6008
:103EA0000897ADF82440ADF81E4007A9284602F057
:103EB00099FB6020ADF800000120ADF802000294EB
:103EC000ADF80E406946284602F00EFC69462846C9
:103ED00002F036FC6946284602F06EFC6946284628
:103EE00002F0A4FC0821284602F03FFD08212846E4
:103EF00002F041FD0821284602F047FD082128462E
:103F000002F049FD0121284602F0CAFB01212846A2
:103F100002F0E0FB0BB0F0BDF0B50E4607468BB0EB
:103F20000121022002F021FA0121042002F0F5F91A
:103F3000BF4D03220621284602F060F80322072124
:103F4000284602F05BF803220821284602F056F8C2
:103F500003220921284602F051F84FF470700590B1
:103F600002208DF8180000248DF81A408DF81B00EF
:103F700003208DF8190005A9284601F0CBFF761E15
:103F8000AC4D7F1EADF81C600897ADF82440ADF82D
:103F90001E4007A9284602F025FB6020ADF800006E
:103FA0000120ADF802000294ADF80C4069462846A5
:103FB00002F09AFB6946284602F0C2FB6946284691
:103FC00002F0FAFB6946284602F030FC012128463F
:103FD00002F072FE0821284602F0C7FC082128469C
:103FE00002F0C9FC0821284602F0CFFC082128462F
:103FF00002F0D1FC0121284602F052FB01212846A3
:1040000002F068FB86E710EE100A8B4910B5884273
:1040100002DB9FED8A0A06E010EE100A884988420A
:1040200001DCB1EE040A10EE100A03F024FA9FED51
:10403000851B53EC112B03F093F99FED841B53EC7C
:10404000112B03F0E6F803F0FDF9784980B2343122
:10405000086010BD10EE100A774910B5884202DBE7
:104060009FED760A06E010EE100A7549884201DCE1
:10407000B1EE040A10EE100A03F0FDF99FED711B7A
:1040800053EC112B03F06CF99FED701B53EC112BCB
:1040900003F0BFF803F0D6F9644980B23831086004
:1040A00010BD10EE100A644910B5884202DB9FED86
:1040B000630A06E010EE100A6149884201DCB1EEA5
:1040C000040A10EE100A03F0D6F99FED5E1B53ECC4
:1040D000112B03F045F99FED5D1B53EC112B03F001
:1040E00098F803F0AFF9514980B23C31086010BD37
:1040F00010EE100A504910B5884202DB9FED4F0ABE
:1041000006E010EE100A4E49884201DCB1EE040AC6
:1041100010EE100A03F0AFF99FED4A1B53EC112B80
:1041200003F01EF99FED491B53EC112B03F071F8BE
:1041300003F088F93D4980B24031086010BD10EEAF
:10414000100A3D4910B5884202DB9FED3C0A06E0AB
:1041500010EE100A3A49884201DCB1EE040A10EE72
:10416000100A03F088F99FED371B53EC112B03F075
:10417000F7F89FED361B53EC112B03F04AF803F0D0
:1041800061F92C4980B23431086010BD10EE100A7C
:10419000294910B5884202DB9FED280A06E010EE9F
:1041A000100A2749884201DCB1EE040A10EE100A19
:1041B00003F061F99FED231B53EC112B03F0D0F8B2
:1041C0009FED221B53EC112B03F023F803F03AF977
:1041D000184980B23831086010BD10EE100A164937
:1041E00010B5884202DB9FED150A06E010EE100ABA
:1041F0001349884201DCB1EE040A10EE100A03F004
:104200003AF99FED101B53EC112B03F0A9F89FED29
:104210000F1B53EC112B02F0FCFF03F013F90549BF
:1042200080B23C31086010BD000C02400008004024
:10423000000802400004014000005C4300005C43B1
:104240000000A0409A99999999991D40000000009A
:1042500000407F4010EE100A264910B5884202DB6C
:104260001FED0A0A06E010EE100A2349884201DC1D
:10427000B1EE040A10EE100A03F0FDF81FED0F1B5B
:1042800053EC112B03F06CF81FED101B53EC112BAA
:1042900002F0BFFF03F0D6F8184980B2086010BDE5
:1042A000174810B590ED000A1648D0ED000A30EE20
:1042B000200AFFF7A8FE144890ED000A1348D0ED3D
:1042C000000A30EE200AFFF7C5FE114890ED000A03
:1042D0001048D0ED000A30EE200AFFF7E2FE0E484B
:1042E00090ED000A0D48D0ED000ABDE8104030EE18
:1042F000200AFDE600005C430000A04040040140AD
:104300003C0000205C0000204000002060000020F5
:1043100044000020640000204800002068000020C5
:104320002DE9F0418846054601218AB0080402F0D3
:104330001CF80121102001F0F0FFFB4E304602F086
:10434000C3F86020022103908DF8101003208DF82F
:10435000110000248DF81240F44F8DF8131003A9BA
:10436000384601F0D7FD03220521384601F046FE0C
:1043700003220621384601F041FEADF8148006956F
:10438000ADF81C40ADF8164005A9304602F02AF9F8
:104390000125ADF80240ADF80450ADF80640ADF887
:1043A0000840ADF800406946304602F0D5FB0420D5
:1043B000ADF800006946304602F0CEFB18208DF8BB
:1043C00020008DF821408DF822408DF8235008A858
:1043D00001F051FB01220721304602F08CFC012143
:1043E000304602F077F90AB0BDE8F0812DE9F34FCD
:1043F0008346012189B0084601F0ADFF012102206A
:1044000001F08BFF0121084601F087FF4FF0804A41
:10441000504602F059F802258DF8045003268DF815
:1044200005600024DFF808934FF004088DF806407B
:10443000CDF800808DF807506946484601F06AFDC6
:104440008DF804508DF8056008278DF80640009718
:104450008DF807506946484601F05CFD8DF8045020
:1044600020208DF8056000908DF806408DF80750EB
:104470006946484601F04EFD8DF804508DF8056000
:104480008DF806408DF80750AA4D009769462846DA
:1044900001F040FD01220221484601F0AFFD01225A
:1044A0000321484601F0AAFD01220521484601F0FA
:1044B000A5FD01220321284601F0A0FD0A98ADF8D0
:1044C0001400CDF818B0ADF81C40ADF8164005A9A1
:1044D000504602F087F80125ADF80A40ADF80C50BF
:1044E000ADF80E40ADF81040ADF8084002A95046B6
:1044F00002F032FBADF8088002A9504602F02CFB16
:10450000ADF8087002A9504602F026FB0C20ADF869
:10451000080002A9504602F01FFB1C208DF8200065
:104520008DF821408DF822408DF8235008A801F025
:10453000A2FA01221F21504602F0DDFB0121504664
:1045400002F0C8F80BB0BDE8F08F2DE9FC41012165
:10455000102001F0E2FE01248DF804400025DFF870
:10456000CC814FF480578DF80650032600978DF8C4
:1045700005606946404601F0CDFC3946404601F0F1
:1045800030FD0121102001F0C8FE8DF804406703C2
:104590008DF8065000978DF805606946404601F099
:1045A000B9FC3946404601F01CFD0121022001F012
:1045B000B4FE8DF804405F4F8DF8065000948DF8DE
:1045C00005606946384601F0A5FC0121384601F036
:1045D00008FD0121082001F0A0FE02208DF8044012
:1045E000554F00908DF806508DF8056069463846A5
:1045F00001F090FC0221384601F0F3FC0121082073
:1046000001F08BFE04208DF8044000908DF80650D8
:104610008DF805606946384601F07CFC0421384677
:1046200001F0DFFC0121082001F077FE08208DF861
:10463000044000908DF806508DF8056069463846B4
:1046400001F068FC0821384601F0CBFC4FF6FF74FE
:1046500053212046FFF7CAFEA7212046FFF760FE40
:10466000BDE8FC812DE9F047DFF8D090364EDFF849
:10467000DC804FF0FF372DED048B4FF000044FF03E
:10468000804599F80000DFED2E8A9FED2E8A9FED80
:10469000309A000677D40121284602F040FB88B109
:1046A00099F8000042060DD5820708D589F8004028
:1046B0000021284602F0D9F9C9F8087002E0401C30
:1046C00089F800000821284602F029FB50B3082190
:1046D000284602F030FB99F80000400628466CD5C9
:1046E00002F0CCFA81B2A9F80410B9F802208A1AB3
:1046F00099F8001001F03F01C1EB0141114400EEB7
:10470000101AC9F80810B8EE400A60EE280A80EEC8
:10471000880A10EE101A89ED030AB1421ADAB2EED5
:10472000040A1DE02FE0000000400140001002409C
:104730000000024000040240000C024094010020EE
:104740000000AA430000FA440000204100601F4519
:1047500000601F4510EE101A414501DDB0EE490A18
:1047600089ED030ABDEEC00A052210EE100A01B25F
:10477000FE4800F050FF89ED030A89F8004000214F
:10478000284602F072F9DFF8E89399F80000000675
:104790006FD40121284602F0C2FAF0B199F8000066
:1047A00042061AD5820715D589F80040002128460F
:1047B00002F06FF9C9F808700FE002F05FFA0146E5
:1047C000A9F8021099F8001041F0400189F8001092
:1047D0000221D5E7401C89F800001021284602F08C
:1047E0009EFAE8B31021284602F0A5FA99F80000D5
:1047F0004006284659D502F043FA81B2A9F80410C0
:10480000B9F802208A1A99F8001001F03F01C1EBB3
:104810000141114400EE101AC9F80810B8EE400A20
:1048200060EE280A80EE880A10EE101A89ED030A5D
:10483000B14202DAB2EE040A05E010EE101A414568
:1048400001DDB0EE490A89ED030ABDEEC00A05227A
:1048500010EE100A01B2C548683000F0DCFE00E03E
:1048600007E089ED030A89F800400021284602F09C
:1048700010F9DFF8FC9209F1200999F80000000610
:104880006FD40121284602F04AFAF0B199F80000ED
:1048900042061AD5820715D589F80040002128461E
:1048A00002F0C3F8C9F808700FE002F0E9F9014618
:1048B000A9F8021099F8001041F0400189F80010A1
:1048C0000221D3E7401C89F800000221284602F0AB
:1048D00026FAE8B30221284602F02DFA99F80000E2
:1048E0004006284659D502F0C5F981B2A9F804104E
:1048F000B9F802208A1A99F8001001F03F01C1EBC3
:104900000141114400EE101AC9F80810B8EE400A2F
:1049100060EE280A80EE880A10EE101A89ED030A6C
:10492000B14202DAB2EE040A05E010EE101A414577
:1049300001DDB0EE490A89ED030ABDEEC00A052289
:1049400010EE100A01B28948D03000F064FE00E099
:1049500007E089ED030A89F800400021284602F0AB
:1049600064F8DFF80C9209F1400999F8000000069C
:104970006AD40121284602F0D2F9F0B199F800007A
:1049800042061AD5820715D589F80040002128462D
:1049900002F057F8C9F808700FE002F06BF9014611
:1049A000A9F8021099F8001041F0400189F80010B0
:1049B0000221D3E7401C89F800000421284602F0B8
:1049C000AEF9E8B30421284602F0B5F999F80000E1
:1049D0004F46400628463FD502F04EF980B2B880D7
:1049E0007988411A387800F03F00C0EB0040084455
:1049F00000EE100AB860B8EE400A60EE280A80EEB9
:104A0000880A10EE100A87ED030AB04202DAB2EE0D
:104A1000040A05E010EE100A404501DDB0EE490A37
:104A200087ED030ABDEEC00A052210EE100A01B29E
:104A3000504800F0F0FD87ED030A3C70002100E0D3
:104A400002E0284601F0FDFFBDEC048B28461F2143
:104A5000BDE8F04702F06FB902F00EF978803878BF
:104A6000022140F040003870E9E72DE9F047404D61
:104A70004FF0FF372DED048B6035287800061FEDD1
:104A8000D09A1FEDD08ADFF8F080DFF8F0905FED6C
:104A9000D08A3B4E4FF0000458D40121304602F03A
:104AA0003EF968B1287841060AD5810706D52C70F1
:104AB0000021304601F0B9FFAF6001E0401C2870D2
:104AC0000221304602F02BF9E8B30221304602F011
:104AD00032F92878400630465BD502F0CBF880B238
:104AE000A8806988411A287800F03F00C0EB004098
:104AF000084400EE100AA860B8EE400A60EE090A09
:104B000080EE880A10EE100A85ED030A404502DAAD
:104B1000B3EE0E0A05E010EE100A484501DDB0EED6
:104B2000680A85ED030ABDEEC00A052210EE100AE0
:104B300001B20E48D03800F06EFD85ED030A2C70EE
:104B40000021304600E001E001F06FFF084D8035A4
:104B5000287800066BD40121304602F0E0F818B343
:104B60002878410620D581071CD50BE0D8110020FC
:104B7000B4010020101300200000F04100601F4528
:104B8000004001402C700021304601F05AFFAF6018
:104B90000AE002F06FF868802878022140F04000B7
:104BA0002870CEE7401C28700421304602F0B7F888
:104BB000E8B30421304602F0BEF8287840063046BB
:104BC0003DD502F059F880B2A8806988411A28784A
:104BD00000F03F00C0EB0040084400EE100AA8605F
:104BE000B8EE400A60EE090A80EE880A10EE100A5C
:104BF00085ED030A404502DAB3EE0E0A05E010EE39
:104C0000100A484501DDB0EE680A85ED030ABDEEE5
:104C1000C00A052210EE100A01B22C4800F0FBFC7D
:104C200085ED030A2C700021304601F00AFFBDEC2F
:104C3000048B30460721BDE8F04702F07CB802F053
:104C40001BF868802878022140F040002870EBE7CC
:104C5000002204E00021491C2829FCD3521C824276
:104C6000F8D3704730B51A4D0123C5F8B0323C2057
:104C700005F52C75FFF7ECFF00242C606B603C20E1
:104C8000FFF7E6FF6C60134DC5F880323C2005F558
:104C90002075FFF7DDFF2C600F4DC5F884323C20F6
:104CA00005F52175FFF7D4FF2C606B603C20FFF702
:104CB000CFFF6C60AB603C20FFF7CAFFAC6030BD3B
:104CC00090ED030A80ED040A704700007011002087
:104CD0000000424200804042008041422DE9F04104
:104CE0008846054601218AB0084601F03EFB0121B5
:104CF000084601F012FBDE4F01220821384601F080
:104D00007DF901220921384601F078F901220A21B2
:104D1000384601F073F901220B21384601F06EF993
:104D20004FF47060059002208DF8180000248DF873
:104D30001A4001268DF81B6003208DF8190005A983
:104D4000384601F0E7F86D1EA8F101000895ADF8AE
:104D50001C00C84DADF82440ADF81E4007A92846F8
:104D600001F040FC6020ADF80000ADF80C40ADF85B
:104D70000260ADF81240ADF80440ADF80E4069464F
:104D80002846029401F0B0FC6946284601F0D8FCA0
:104D90006946284601F010FD6946284601F046FDA7
:104DA0000821284601F0E1FD0821284601F0E3FD35
:104DB0000821284601F0E9FD0821284601F0EBFD15
:104DC0000121284601F06CFC0121284601F074FF06
:104DD0000121284601F07EFC4FF47A6421462846E2
:104DE00001F09BFD2146284601F099FD2146284609
:104DF00001F097FD2146284601F095FD0AB0BDE877
:104E0000F0812DE9FC5F0121102001F086FA0121DB
:104E1000084601F082FA0121022001F07EFA012108
:104E2000082001F07AFA0121042001F076FA012429
:104E30008DF8044000208DF8060003208DF8050051
:104E4000650269468C48009501F064F8E6036946FE
:104E50008748009601F05EF8A702694687480097E8
:104E600001F058F8DFF818A24FF400686946504680
:104E7000CDF8008001F04EF81020009069467F4880
:104E800001F048F82020009069467C4801F042F883
:104E9000DFF8F0B14FF4805969465846CDF80090DC
:104EA00001F038F869465046009401F033F80221C9
:104EB0004FF4E150FFF712FF29466F4801F08FF8D9
:104EC00031466B4801F08DF839466C4801F087F89F
:104ED0004146504601F085F81021684801F07FF8FE
:104EE0002021664801F07DF84946584601F077F8E0
:104EF0000121504601F075F8BDE8FC9F002800DA5A
:104F00004042704730B560480021012390ED000A0F
:104F10005E48694C694DD0ED000A5D48554A30EE57
:104F2000200AD0ED000A5B4870EE201A90ED000ACE
:104F30005948D0ED000A594830EE200AD0ED000A59
:104F4000574830EE201A90ED000A5648B5EEC01AC8
:104F5000D0ED000A544830EE200AD0ED000A534844
:104F600070EE200A90ED000A514890ED002A514859
:104F700030EE020A90ED002A30EE020AF1EE10FA4D
:104F800008DBBCEEC12A12EE100A5063C4F8BC3232
:104F9000C5F8A412B5EEC01AF1EE10FA0AD2BDEEB1
:104FA000C11A11EE100AFFF7A9FF5063C4F8BC1232
:104FB000C5F8A432F5EEC00A414CF1EE10FA08DB58
:104FC000BCEEE01A11EE100A9063C4F89032C4F8F7
:104FD0009412F5EEC00AF1EE10FA0AD2FDEEE00AE4
:104FE00010EE900AFFF78AFF9063C4F89012C4F89D
:104FF0009432F5EEC01A334DF1EE10FA08DBFCEEF8
:10500000E10A10EE900AD063C5F8AC12C4F8A832D9
:10501000F5EEC01AF1EE10FA0AD2FDEEE10A10EE3A
:10502000900AFFF76BFFD063C5F8AC32C4F8A81242
:10503000B5EEC00A244CF1EE10FA08DBFCEEC00A13
:1050400010EE900A1064C4F8B012C5F88032B5EEC4
:10505000C00AF1EE10FA0AD2BDEEC00A10EE100A34
:10506000FFF74CFF1064C4F8B032C5F8801230BDB1
:105070000000024000000140001002400004024015
:10508000000C0240000802404C0000207C00002080
:105090008C000020500000208000002090000020A4
:1050A00054000020840000209400002058000020BC
:1050B000880000209800002000004042000042428A
:1050C000008040420080414200004142F0B50D4660
:1050D000064689B00121022001F03DF90121084670
:1050E00001F01BF9BC4F02220621384600F086FF72
:1050F00002220721384600F081FFC02003900220E1
:105100008DF8100000248DF8124001208DF8130056
:1051100003A9384600F0FEFE6D1EADF80050ADF854
:105120000240ADF80840AD4C761E01966946204617
:1051300001F058FA00231A460321204601F075FEBB
:1051400005A801F05BFD0621ADF81C1005A920465D
:1051500001F002FD0121204601F0DEFD0122114691
:10516000204601F0C8FD0021204601F07DFA012112
:10517000204601F0AFFA09B0F0BDF0B50D46064685
:1051800089B00121082001F0E6F80121084601F06C
:10519000C4F8914F02220021384600F02FFF02226E
:1051A0000121384600F02AFF0320039002208DF8E9
:1051B000100000248DF8124001208DF8130003A97F
:1051C000384600F0A7FE6D1EADF80050ADF8024065
:1051D000ADF80840824C761E01966946204601F0E3
:1051E00001FA02231A460321204601F01EFE05A8FB
:1051F00001F004FD0621ADF81C1005A9204601F0C0
:10520000ABFC0121204601F087FD0122114620461A
:1052100001F071FD0021204601F026FA012120460F
:1052200001F058FAA7E76E49243108686B4A00B2CA
:1052300000EE100A6B482432B8EEC00A80ED000A76
:1052400013681BB200EE903AF8EEE00AC0ED010AD6
:105250009FED651A60EE011AB2EE040A61EE802A33
:10526000DFED621A60EE810A82EEA12A20EE800A4A
:10527000D0ED042AC0EE210A32EE222A80ED042A63
:1052800090ED050A30EE800A80ED050A00200860E6
:105290001060704770B5DFED560A437800EB830469
:1052A0005B1C437084ED030A0578E5B3514C90ED27
:1052B000030A012384ED010A84ED000A16E000EBE5
:1052C000830694ED001A96ED030AB4EEC10AF1EEDE
:1052D00010FA01DD84ED000A94ED011AB4EEC10A62
:1052E000F1EE10FA01D284ED010A5B1C8B42E6D389
:1052F000002306E000EB83065B1C96ED030A70EECC
:10530000200A8B42F6D394ED000A94ED011A8B1E0D
:1053100030EE010A70EEC00A00EE103AB8EEC01A84
:1053200080EE810A00E00EE080ED010A012D0FD130
:1053300010EE103A304CA34206DA82ED000A90EDEE
:10534000010A80ED020A03E090ED020A82ED000AF4
:1053500042788A4203D1012101700021417070BD61
:1053600000B5B0EE403AFFF75EFF1E489FED1F1AF2
:10537000DFED1D1AD0ED000A00F10802052180EED4
:10538000810AD0ED040A20EE212AB2EE040A42EE90
:10539000000AC0ED040A90ED012AF1EE600AC2EEA7
:1053A000012A90ED051A62EEA11A01EE801A80EE34
:1053B000830A80ED051AF1EE410A1830C0EE831A17
:1053C000FFF768FF074AB0EE610A0C32052102F1CF
:1053D00040005DF804EB5DE700000240000400407F
:1053E000000C004078130020C3F5484000004645FB
:1053F000000000006C02002000409C452DE9F041B7
:1054000005462DED028B984614460E46500002F0DC
:10541000E5FE00EE106A95F86410B8EEC00A05EBE0
:105420008102491C85F8641082ED000A95F8641029
:10543000A14202D3002185F8641000210BE005EBA6
:10544000810292ED000ABDEEC00A10EE102A20F88B
:105450001120491CC9B2A142F1D30022A4F1010CD0
:1054600014E00021A71A7F1E0CE000EB410630F982
:105470001150B6F902309D4202DD20F811307580DE
:10548000491CC9B28F42F0DC521CD2B26245E8DB43
:1054900030F9181000EE101AB8EEC08A02F076FE4D
:1054A000B0EE480ABDEC028BBDE8F08110B5DFED2F
:1054B000F70A90F86430002200EB83045B1C80F84C
:1054C000643084ED000A90F864308B420BD30023E3
:1054D00080F8643007E000EB8203521C93ED000A71
:1054E000D2B270EE200A8A42F5D300EE101AB8EE5E
:1054F000401A80EE810A10BD10B5DFEDE40A90F885
:105500009031002200EB83045B1C80F8903184ED25
:10551000000A90F890318B420BD3002380F8903131
:1055200007E000EB8203521C93ED000AD2B270EE4A
:10553000200A8A42F5D300EE101AB8EE401A80EE27
:10554000810A10BD10B5DFEDD10A00EE101A90F8F7
:105550006410B8EEC00A00EB8103491C80F86410A7
:1055600083ED000A90F86410914202D3002180F884
:10557000641090ED000AC64BBDEEC00A10EE101A82
:1055800059801980012125E000EB810494ED000A87
:10559000B3F9004001EE104AB8EEC11AB4EEC10AE8
:1055A000F1EE10FA04DDBDEEC01A11EE104A1C80B7
:1055B000B3F9024001EE104AB8EEC11AB4EEC10AC6
:1055C000F1EE10FA04D2BDEEC00A10EE104A5C8073
:1055D000491CC9B29142D7D3002107E000EB8104F6
:1055E000491C94ED000AC9B270EE200A9142F5D32D
:1055F000B3F90000B3F90210921E084400EE100A3D
:10560000B8EEC00A70EEC00A00EE102AB8EEC01A5A
:1056100080EE810A10BD10B59FED9C0A00EE901A35
:1056200090F86410F8EEE00A00EB8103491C80F862
:105630006410C3ED000A90F86410914202D3002177
:1056400080F86410D0ED000A914BFDEEE00A10EEF8
:10565000901AD9809980012115E000EB8104D4EDE6
:10566000000AB3F9044001EE104AB8EEC11AF4EE94
:10567000C10AF1EE10FA04DDFDEEE00A10EE904AE8
:105680009C80491CC9B29142E7D3012120E000EB84
:105690008104D4ED000AB3F9064001EE104AB8EED9
:1056A000C11AF4EEC10AF1EE10FA0FDDB3F90440AD
:1056B00001EE104AB8EEC11AF4EEC10AF1EE10FA8A
:1056C00004D2FDEEE00A10EE904ADC80491CC9B21B
:1056D0009142DCD3002107E000EB8104491CD4EDAA
:1056E000000AC9B230EE800A9142F5D3B3F9040042
:1056F000B3F90610921E084400EE900AF8EEE00A94
:1057000070EE600A00EE102AB8EEC01A80EE810A30
:1057100010BD70B500249FED5D0A457800EB45068D
:105720006D1C4570F18005785DB925E000EB440102
:10573000641CB1F9061000EE901AF8EEE00A30EEA3
:10574000800A9442F2D300EE902A012DF8EE600A0E
:1057500080EE201ABDEEC10A10EE101A09B2418087
:105760000AD141F28834A14203DA1960418881806C
:1057700002E0B0F9041019604178914203D101218F
:1057800001700021417070BDF0B544789FED3F0A73
:1057900000EB4405641C4470E9800778F7B33C4E85
:1057A000C18871813181012112E000EB4104B6F81A
:1057B00008C0B4F90650654503DDB4F806C0A6F884
:1057C00008C0B6F80AC0654501DAE4887481491C4E
:1057D0009142EAD300210AE000EB4104491CB4F9EC
:1057E000064000EE904AF8EEE00A30EE800A914260
:1057F000F2D331897489214400EE901A911EF8EE9B
:10580000600A30EE600A00EE901AF8EEE00A80EED0
:10581000201ABDEEC10A10EE101A00E00AE009B22B
:105820004180012F09D141F28834A14203DA198065
:105830004188818001E0818819804178914203D1BB
:105840000121017000214170F0BD1148DFED110A06
:105850009FED111AD0ED041A71EEA00A70EE811AB4
:1058600080EEA11AD0ED031A30EE612AB0EE610A83
:10587000F7EE001A01EE020A31EEC11A61EE200ABB
:1058800080ED030AC0ED040A70470000000000002C
:1058900074020020A69B443B0AD7233C70B5012824
:1058A0002DED028B0ED0022811D0032826D004281B
:1058B00029D005282FD006281DD1234D234C95ED46
:1058C000038A2CE0224C234D94ED038A03E0224C02
:1058D000224D94ED038AD5ED008A38EE680A10EE69
:1058E000100A01F0C8FD41EC100B01F087FC5028B4
:1058F0000EDDC4ED038ABDEC028B70BD184D194C52
:1059000095ED038A0BE0184C184D94ED038AE2E7FD
:1059100085ED008AEFE7164D164C95ED038AD4ED20
:10592000008A38EE680A10EE100A01F0A4FD41EC7E
:10593000100B01F063FC502802DDC5ED038ADAE7A5
:1059400084ED008AD7E70000F401002068020020FF
:1059500014020020540200203402002058020020CB
:10596000940100205C020020B401002060020020AD
:10597000D4010020640200202DE9FC4101211C20FB
:1059800000F0CBFC012680208DF804600024DFF8B5
:10599000AC8000908DF8064003258DF805506946CF
:1059A000404600F0B7FA8021404600F01AFB37026B
:1059B00069464046009700F0ADFA8DF804608DF816
:1059C00006408DF805503946404600F00AFB8DF838
:1059D0000460B7038DF8064000978DF805506946BE
:1059E000404600F097FA3946404600F0FAFAF003D4
:1059F0008DF8044000908DF807408DF805506946F9
:105A0000404600F087FA70028DF8044000908DF84F
:105A100007408DF805506946094800F07BFAF0020E
:105A20008DF8044000908DF807408DF805506946C8
:105A3000044800F06FFABDE8FC810000001002404D
:105A4000000C024000080240064880470648004714
:105A5000FEE7FEE7FEE7FEE7FEE7FEE7FEE7FEE71E
:105A6000FEE7FEE7071300088901000828490843FC
:105A700028490860704730B50F23C27801780125A6
:105A8000FAB1244A126801F1E02102F4E062C2F5A1
:105A9000E062C2F30722C2F10404D3404278A2407C
:105AA00084781C401443220181F80024007800F01F
:105AB0001F018D404009800000F1E020C0F8005136
:105AC00030BD01F01F0085404809800000F1E02052
:105AD000C0F8805130BD104A114001430D48001FED
